{
	"Contracts/FundMe/FundMe.sol": {
		"FundMe": {
			"abi": [
				{
					"inputs": [],
					"stateMutability": "nonpayable",
					"type": "constructor"
				},
				{
					"inputs": [],
					"name": "MINIMUM_USD",
					"outputs": [
						{
							"internalType": "uint256",
							"name": "",
							"type": "uint256"
						}
					],
					"stateMutability": "view",
					"type": "function"
				},
				{
					"inputs": [
						{
							"internalType": "address",
							"name": "funder",
							"type": "address"
						}
					],
					"name": "addressToAmountFunded",
					"outputs": [
						{
							"internalType": "uint256",
							"name": "amoutFunded",
							"type": "uint256"
						}
					],
					"stateMutability": "view",
					"type": "function"
				},
				{
					"inputs": [],
					"name": "fund",
					"outputs": [],
					"stateMutability": "payable",
					"type": "function"
				},
				{
					"inputs": [
						{
							"internalType": "uint256",
							"name": "",
							"type": "uint256"
						}
					],
					"name": "funders",
					"outputs": [
						{
							"internalType": "address",
							"name": "",
							"type": "address"
						}
					],
					"stateMutability": "view",
					"type": "function"
				},
				{
					"inputs": [],
					"name": "owner",
					"outputs": [
						{
							"internalType": "address",
							"name": "",
							"type": "address"
						}
					],
					"stateMutability": "view",
					"type": "function"
				},
				{
					"inputs": [],
					"name": "withdraw",
					"outputs": [],
					"stateMutability": "nonpayable",
					"type": "function"
				}
			],
			"devdoc": {
				"kind": "dev",
				"methods": {},
				"version": 1
			},
			"evm": {
				"assembly": "    /* \"Contracts/FundMe/FundMe.sol\":127:1472  contract FundMe {... */\n  mstore(0x40, 0x80)\n    /* \"Contracts/FundMe/FundMe.sol\":374:422  constructor(){... */\n  callvalue\n  dup1\n  iszero\n  tag_1\n  jumpi\n  0x00\n  dup1\n  revert\ntag_1:\n  pop\n    /* \"Contracts/FundMe/FundMe.sol\":405:415  msg.sender */\n  caller\n    /* \"Contracts/FundMe/FundMe.sol\":397:402  owner */\n  0x02\n  0x00\n    /* \"Contracts/FundMe/FundMe.sol\":397:415  owner = msg.sender */\n  0x0100\n  exp\n  dup2\n  sload\n  dup2\n  0xffffffffffffffffffffffffffffffffffffffff\n  mul\n  not\n  and\n  swap1\n  dup4\n  0xffffffffffffffffffffffffffffffffffffffff\n  and\n  mul\n  or\n  swap1\n  sstore\n  pop\n    /* \"Contracts/FundMe/FundMe.sol\":127:1472  contract FundMe {... */\n  dataSize(sub_0)\n  dup1\n  dataOffset(sub_0)\n  0x00\n  codecopy\n  0x00\n  return\nstop\n\nsub_0: assembly {\n        /* \"Contracts/FundMe/FundMe.sol\":127:1472  contract FundMe {... */\n      mstore(0x40, 0x80)\n      jumpi(tag_1, lt(calldatasize, 0x04))\n      shr(0xe0, calldataload(0x00))\n      dup1\n      0x3ccfd60b\n      eq\n      tag_2\n      jumpi\n      dup1\n      0x3e47d6f3\n      eq\n      tag_3\n      jumpi\n      dup1\n      0x6b69a592\n      eq\n      tag_4\n      jumpi\n      dup1\n      0x8da5cb5b\n      eq\n      tag_5\n      jumpi\n      dup1\n      0xb60d4288\n      eq\n      tag_6\n      jumpi\n      dup1\n      0xdc0d3dff\n      eq\n      tag_7\n      jumpi\n    tag_1:\n      0x00\n      dup1\n      revert\n        /* \"Contracts/FundMe/FundMe.sol\":682:1365  function withdraw() public onlyOwner{... */\n    tag_2:\n      callvalue\n      dup1\n      iszero\n      tag_8\n      jumpi\n      0x00\n      dup1\n      revert\n    tag_8:\n      pop\n      tag_9\n      tag_10\n      jump\t// in\n    tag_9:\n      stop\n        /* \"Contracts/FundMe/FundMe.sol\":266:341  mapping(address funder => uint256 amoutFunded) public addressToAmountFunded */\n    tag_3:\n      callvalue\n      dup1\n      iszero\n      tag_11\n      jumpi\n      0x00\n      dup1\n      revert\n    tag_11:\n      pop\n      tag_12\n      0x04\n      dup1\n      calldatasize\n      sub\n      dup2\n      add\n      swap1\n      tag_13\n      swap2\n      swap1\n      tag_14\n      jump\t// in\n    tag_13:\n      tag_15\n      jump\t// in\n    tag_12:\n      mload(0x40)\n      tag_16\n      swap2\n      swap1\n      tag_17\n      jump\t// in\n    tag_16:\n      mload(0x40)\n      dup1\n      swap2\n      sub\n      swap1\n      return\n        /* \"Contracts/FundMe/FundMe.sol\":188:230  uint256 public constant MINIMUM_USD = 5e18 */\n    tag_4:\n      callvalue\n      dup1\n      iszero\n      tag_18\n      jumpi\n      0x00\n      dup1\n      revert\n    tag_18:\n      pop\n      tag_19\n      tag_20\n      jump\t// in\n    tag_19:\n      mload(0x40)\n      tag_21\n      swap2\n      swap1\n      tag_17\n      jump\t// in\n    tag_21:\n      mload(0x40)\n      dup1\n      swap2\n      sub\n      swap1\n      return\n        /* \"Contracts/FundMe/FundMe.sol\":347:367  address public owner */\n    tag_5:\n      callvalue\n      dup1\n      iszero\n      tag_22\n      jumpi\n      0x00\n      dup1\n      revert\n    tag_22:\n      pop\n      tag_23\n      tag_24\n      jump\t// in\n    tag_23:\n      mload(0x40)\n      tag_25\n      swap2\n      swap1\n      tag_26\n      jump\t// in\n    tag_25:\n      mload(0x40)\n      dup1\n      swap2\n      sub\n      swap1\n      return\n        /* \"Contracts/FundMe/FundMe.sol\":428:676  function fund() public payable {... */\n    tag_6:\n      tag_27\n      tag_28\n      jump\t// in\n    tag_27:\n      stop\n        /* \"Contracts/FundMe/FundMe.sol\":236:260  address[] public funders */\n    tag_7:\n      callvalue\n      dup1\n      iszero\n      tag_29\n      jumpi\n      0x00\n      dup1\n      revert\n    tag_29:\n      pop\n      tag_30\n      0x04\n      dup1\n      calldatasize\n      sub\n      dup2\n      add\n      swap1\n      tag_31\n      swap2\n      swap1\n      tag_32\n      jump\t// in\n    tag_31:\n      tag_33\n      jump\t// in\n    tag_30:\n      mload(0x40)\n      tag_34\n      swap2\n      swap1\n      tag_26\n      jump\t// in\n    tag_34:\n      mload(0x40)\n      dup1\n      swap2\n      sub\n      swap1\n      return\n        /* \"Contracts/FundMe/FundMe.sol\":682:1365  function withdraw() public onlyOwner{... */\n    tag_10:\n        /* \"Contracts/FundMe/FundMe.sol\":1427:1432  owner */\n      0x02\n      0x00\n      swap1\n      sload\n      swap1\n      0x0100\n      exp\n      swap1\n      div\n      0xffffffffffffffffffffffffffffffffffffffff\n      and\n        /* \"Contracts/FundMe/FundMe.sol\":1413:1432  msg.sender == owner */\n      0xffffffffffffffffffffffffffffffffffffffff\n      and\n        /* \"Contracts/FundMe/FundMe.sol\":1413:1423  msg.sender */\n      caller\n        /* \"Contracts/FundMe/FundMe.sol\":1413:1432  msg.sender == owner */\n      0xffffffffffffffffffffffffffffffffffffffff\n      and\n      eq\n        /* \"Contracts/FundMe/FundMe.sol\":1405:1451  require(msg.sender == owner, \"Must be owner!\") */\n      tag_36\n      jumpi\n      mload(0x40)\n      0x08c379a000000000000000000000000000000000000000000000000000000000\n      dup2\n      mstore\n      0x04\n      add\n      tag_37\n      swap1\n      tag_38\n      jump\t// in\n    tag_37:\n      mload(0x40)\n      dup1\n      swap2\n      sub\n      swap1\n      revert\n    tag_36:\n        /* \"Contracts/FundMe/FundMe.sol\":733:752  uint256 funderIndex */\n      0x00\n        /* \"Contracts/FundMe/FundMe.sol\":729:911  for(uint256 funderIndex = 0; funderIndex < funders.length; funderIndex++){... */\n    tag_40:\n        /* \"Contracts/FundMe/FundMe.sol\":772:779  funders */\n      0x00\n        /* \"Contracts/FundMe/FundMe.sol\":772:786  funders.length */\n      dup1\n      sload\n      swap1\n      pop\n        /* \"Contracts/FundMe/FundMe.sol\":758:769  funderIndex */\n      dup2\n        /* \"Contracts/FundMe/FundMe.sol\":758:786  funderIndex < funders.length */\n      lt\n        /* \"Contracts/FundMe/FundMe.sol\":729:911  for(uint256 funderIndex = 0; funderIndex < funders.length; funderIndex++){... */\n      iszero\n      tag_41\n      jumpi\n        /* \"Contracts/FundMe/FundMe.sol\":816:830  address funder */\n      0x00\n        /* \"Contracts/FundMe/FundMe.sol\":833:840  funders */\n      dup1\n        /* \"Contracts/FundMe/FundMe.sol\":841:852  funderIndex */\n      dup3\n        /* \"Contracts/FundMe/FundMe.sol\":833:853  funders[funderIndex] */\n      dup2\n      sload\n      dup2\n      lt\n      tag_43\n      jumpi\n      tag_44\n      tag_45\n      jump\t// in\n    tag_44:\n    tag_43:\n      swap1\n      0x00\n      mstore\n      keccak256(0x00, 0x20)\n      add\n      0x00\n      swap1\n      sload\n      swap1\n      0x0100\n      exp\n      swap1\n      div\n      0xffffffffffffffffffffffffffffffffffffffff\n      and\n        /* \"Contracts/FundMe/FundMe.sol\":816:853  address funder = funders[funderIndex] */\n      swap1\n      pop\n        /* \"Contracts/FundMe/FundMe.sol\":899:900  0 */\n      0x00\n        /* \"Contracts/FundMe/FundMe.sol\":867:888  addressToAmountFunded */\n      0x01\n        /* \"Contracts/FundMe/FundMe.sol\":867:896  addressToAmountFunded[funder] */\n      0x00\n        /* \"Contracts/FundMe/FundMe.sol\":889:895  funder */\n      dup4\n        /* \"Contracts/FundMe/FundMe.sol\":867:896  addressToAmountFunded[funder] */\n      0xffffffffffffffffffffffffffffffffffffffff\n      and\n      0xffffffffffffffffffffffffffffffffffffffff\n      and\n      dup2\n      mstore\n      0x20\n      add\n      swap1\n      dup2\n      mstore\n      0x20\n      add\n      0x00\n      keccak256\n        /* \"Contracts/FundMe/FundMe.sol\":867:900  addressToAmountFunded[funder] = 0 */\n      dup2\n      swap1\n      sstore\n      pop\n        /* \"Contracts/FundMe/FundMe.sol\":802:911  {... */\n      pop\n        /* \"Contracts/FundMe/FundMe.sol\":788:801  funderIndex++ */\n      dup1\n      dup1\n      tag_47\n      swap1\n      tag_48\n      jump\t// in\n    tag_47:\n      swap2\n      pop\n      pop\n        /* \"Contracts/FundMe/FundMe.sol\":729:911  for(uint256 funderIndex = 0; funderIndex < funders.length; funderIndex++){... */\n      jump(tag_40)\n    tag_41:\n      pop\n        /* \"Contracts/FundMe/FundMe.sol\":944:945  0 */\n      0x00\n        /* \"Contracts/FundMe/FundMe.sol\":930:946  new address[](0) */\n      0xffffffffffffffff\n      dup2\n      gt\n      iszero\n      tag_49\n      jumpi\n      tag_50\n      tag_51\n      jump\t// in\n    tag_50:\n    tag_49:\n      mload(0x40)\n      swap1\n      dup1\n      dup3\n      mstore\n      dup1\n      0x20\n      mul\n      0x20\n      add\n      dup3\n      add\n      0x40\n      mstore\n      dup1\n      iszero\n      tag_52\n      jumpi\n      dup2\n      0x20\n      add\n      0x20\n      dup3\n      mul\n      dup1\n      calldatasize\n      dup4\n      calldatacopy\n      dup1\n      dup3\n      add\n      swap2\n      pop\n      pop\n      swap1\n      pop\n    tag_52:\n      pop\n        /* \"Contracts/FundMe/FundMe.sol\":920:927  funders */\n      0x00\n        /* \"Contracts/FundMe/FundMe.sol\":920:946  funders = new address[](0) */\n      swap1\n      dup1\n      mload\n      swap1\n      0x20\n      add\n      swap1\n      tag_53\n      swap3\n      swap2\n      swap1\n      tag_54\n      jump\t// in\n    tag_53:\n      pop\n        /* \"Contracts/FundMe/FundMe.sol\":1236:1251  bool callSucess */\n      0x00\n        /* \"Contracts/FundMe/FundMe.sol\":1264:1274  msg.sender */\n      caller\n        /* \"Contracts/FundMe/FundMe.sol\":1256:1280  payable(msg.sender).call */\n      0xffffffffffffffffffffffffffffffffffffffff\n      and\n        /* \"Contracts/FundMe/FundMe.sol\":1288:1309  address(this).balance */\n      selfbalance\n        /* \"Contracts/FundMe/FundMe.sol\":1256:1314  payable(msg.sender).call{value: address(this).balance}(\"\") */\n      mload(0x40)\n      tag_55\n      swap1\n      tag_56\n      jump\t// in\n    tag_55:\n      0x00\n      mload(0x40)\n      dup1\n      dup4\n      sub\n      dup2\n      dup6\n      dup8\n      gas\n      call\n      swap3\n      pop\n      pop\n      pop\n      returndatasize\n      dup1\n      0x00\n      dup2\n      eq\n      tag_59\n      jumpi\n      mload(0x40)\n      swap2\n      pop\n      and(add(returndatasize, 0x3f), not(0x1f))\n      dup3\n      add\n      0x40\n      mstore\n      returndatasize\n      dup3\n      mstore\n      returndatasize\n      0x00\n      0x20\n      dup5\n      add\n      returndatacopy\n      jump(tag_58)\n    tag_59:\n      0x60\n      swap2\n      pop\n    tag_58:\n      pop\n        /* \"Contracts/FundMe/FundMe.sol\":1235:1314  (bool callSucess,) = payable(msg.sender).call{value: address(this).balance}(\"\") */\n      pop\n      swap1\n      pop\n        /* \"Contracts/FundMe/FundMe.sol\":1332:1342  callSucess */\n      dup1\n        /* \"Contracts/FundMe/FundMe.sol\":1324:1358  require(callSucess, \"Call failed\") */\n      tag_60\n      jumpi\n      mload(0x40)\n      0x08c379a000000000000000000000000000000000000000000000000000000000\n      dup2\n      mstore\n      0x04\n      add\n      tag_61\n      swap1\n      tag_62\n      jump\t// in\n    tag_61:\n      mload(0x40)\n      dup1\n      swap2\n      sub\n      swap1\n      revert\n    tag_60:\n        /* \"Contracts/FundMe/FundMe.sol\":718:1365  {... */\n      pop\n        /* \"Contracts/FundMe/FundMe.sol\":682:1365  function withdraw() public onlyOwner{... */\n      jump\t// out\n        /* \"Contracts/FundMe/FundMe.sol\":266:341  mapping(address funder => uint256 amoutFunded) public addressToAmountFunded */\n    tag_15:\n      mstore(0x20, 0x01)\n      dup1\n      0x00\n      mstore\n      keccak256(0x00, 0x40)\n      0x00\n      swap2\n      pop\n      swap1\n      pop\n      sload\n      dup2\n      jump\t// out\n        /* \"Contracts/FundMe/FundMe.sol\":188:230  uint256 public constant MINIMUM_USD = 5e18 */\n    tag_20:\n        /* \"Contracts/FundMe/FundMe.sol\":226:230  5e18 */\n      0x4563918244f40000\n        /* \"Contracts/FundMe/FundMe.sol\":188:230  uint256 public constant MINIMUM_USD = 5e18 */\n      dup2\n      jump\t// out\n        /* \"Contracts/FundMe/FundMe.sol\":347:367  address public owner */\n    tag_24:\n      0x02\n      0x00\n      swap1\n      sload\n      swap1\n      0x0100\n      exp\n      swap1\n      div\n      0xffffffffffffffffffffffffffffffffffffffff\n      and\n      dup2\n      jump\t// out\n        /* \"Contracts/FundMe/FundMe.sol\":428:676  function fund() public payable {... */\n    tag_28:\n        /* \"Contracts/FundMe/FundMe.sol\":226:230  5e18 */\n      0x4563918244f40000\n        /* \"Contracts/FundMe/FundMe.sol\":477:506  msg.value.getConversionRate() */\n      tag_64\n        /* \"Contracts/FundMe/FundMe.sol\":477:486  msg.value */\n      callvalue\n        /* \"Contracts/FundMe/FundMe.sol\":477:504  msg.value.getConversionRate */\n      tag_65\n        /* \"Contracts/FundMe/FundMe.sol\":477:506  msg.value.getConversionRate() */\n      jump\t// in\n    tag_64:\n        /* \"Contracts/FundMe/FundMe.sol\":477:521  msg.value.getConversionRate() >= MINIMUM_USD */\n      lt\n      iszero\n        /* \"Contracts/FundMe/FundMe.sol\":469:549  require(msg.value.getConversionRate() >= MINIMUM_USD, \"didn't send enought ETH\") */\n      tag_66\n      jumpi\n      mload(0x40)\n      0x08c379a000000000000000000000000000000000000000000000000000000000\n      dup2\n      mstore\n      0x04\n      add\n      tag_67\n      swap1\n      tag_68\n      jump\t// in\n    tag_67:\n      mload(0x40)\n      dup1\n      swap2\n      sub\n      swap1\n      revert\n    tag_66:\n        /* \"Contracts/FundMe/FundMe.sol\":589:596  funders */\n      0x00\n        /* \"Contracts/FundMe/FundMe.sol\":602:612  msg.sender */\n      caller\n        /* \"Contracts/FundMe/FundMe.sol\":589:613  funders.push(msg.sender) */\n      swap1\n      dup1\n      0x01\n      dup2\n      sload\n      add\n      dup1\n      dup3\n      sstore\n      dup1\n      swap2\n      pop\n      pop\n      0x01\n      swap1\n      sub\n      swap1\n      0x00\n      mstore\n      keccak256(0x00, 0x20)\n      add\n      0x00\n      swap1\n      swap2\n      swap1\n      swap2\n      swap1\n      swap2\n      0x0100\n      exp\n      dup2\n      sload\n      dup2\n      0xffffffffffffffffffffffffffffffffffffffff\n      mul\n      not\n      and\n      swap1\n      dup4\n      0xffffffffffffffffffffffffffffffffffffffff\n      and\n      mul\n      or\n      swap1\n      sstore\n      pop\n        /* \"Contracts/FundMe/FundMe.sol\":660:669  msg.value */\n      callvalue\n        /* \"Contracts/FundMe/FundMe.sol\":623:644  addressToAmountFunded */\n      0x01\n        /* \"Contracts/FundMe/FundMe.sol\":623:656  addressToAmountFunded[msg.sender] */\n      0x00\n        /* \"Contracts/FundMe/FundMe.sol\":645:655  msg.sender */\n      caller\n        /* \"Contracts/FundMe/FundMe.sol\":623:656  addressToAmountFunded[msg.sender] */\n      0xffffffffffffffffffffffffffffffffffffffff\n      and\n      0xffffffffffffffffffffffffffffffffffffffff\n      and\n      dup2\n      mstore\n      0x20\n      add\n      swap1\n      dup2\n      mstore\n      0x20\n      add\n      0x00\n      keccak256\n      0x00\n        /* \"Contracts/FundMe/FundMe.sol\":623:669  addressToAmountFunded[msg.sender] += msg.value */\n      dup3\n      dup3\n      sload\n      tag_70\n      swap2\n      swap1\n      tag_71\n      jump\t// in\n    tag_70:\n      swap3\n      pop\n      pop\n      dup2\n      swap1\n      sstore\n      pop\n        /* \"Contracts/FundMe/FundMe.sol\":428:676  function fund() public payable {... */\n      jump\t// out\n        /* \"Contracts/FundMe/FundMe.sol\":236:260  address[] public funders */\n    tag_33:\n      0x00\n      dup2\n      dup2\n      sload\n      dup2\n      lt\n      tag_72\n      jumpi\n      0x00\n      dup1\n      revert\n    tag_72:\n      swap1\n      0x00\n      mstore\n      keccak256(0x00, 0x20)\n      add\n      0x00\n      swap2\n      pop\n      sload\n      swap1\n      0x0100\n      exp\n      swap1\n      div\n      0xffffffffffffffffffffffffffffffffffffffff\n      and\n      dup2\n      jump\t// out\n        /* \"Contracts/FundMe/PriceConverter.sol\":469:688  function getConversionRate(uint256 ethAmount) internal view returns (uint256){... */\n    tag_65:\n        /* \"Contracts/FundMe/PriceConverter.sol\":538:545  uint256 */\n      0x00\n        /* \"Contracts/FundMe/PriceConverter.sol\":556:572  uint256 ethPrice */\n      dup1\n        /* \"Contracts/FundMe/PriceConverter.sol\":575:585  getPrice() */\n      tag_75\n        /* \"Contracts/FundMe/PriceConverter.sol\":575:583  getPrice */\n      tag_76\n        /* \"Contracts/FundMe/PriceConverter.sol\":575:585  getPrice() */\n      jump\t// in\n    tag_75:\n        /* \"Contracts/FundMe/PriceConverter.sol\":556:585  uint256 ethPrice = getPrice() */\n      swap1\n      pop\n        /* \"Contracts/FundMe/PriceConverter.sol\":595:617  uint256 ethAmountinUSD */\n      0x00\n        /* \"Contracts/FundMe/PriceConverter.sol\":646:650  1e18 */\n      0x0de0b6b3a7640000\n        /* \"Contracts/FundMe/PriceConverter.sol\":633:642  ethAmount */\n      dup5\n        /* \"Contracts/FundMe/PriceConverter.sol\":622:630  ethPrice */\n      dup4\n        /* \"Contracts/FundMe/PriceConverter.sol\":622:642  ethPrice * ethAmount */\n      tag_77\n      swap2\n      swap1\n      tag_78\n      jump\t// in\n    tag_77:\n        /* \"Contracts/FundMe/PriceConverter.sol\":621:650  (ethPrice * ethAmount) / 1e18 */\n      tag_79\n      swap2\n      swap1\n      tag_80\n      jump\t// in\n    tag_79:\n        /* \"Contracts/FundMe/PriceConverter.sol\":595:650  uint256 ethAmountinUSD  = (ethPrice * ethAmount) / 1e18 */\n      swap1\n      pop\n        /* \"Contracts/FundMe/PriceConverter.sol\":667:681  ethAmountinUSD */\n      dup1\n        /* \"Contracts/FundMe/PriceConverter.sol\":660:681  return ethAmountinUSD */\n      swap3\n      pop\n      pop\n      pop\n        /* \"Contracts/FundMe/PriceConverter.sol\":469:688  function getConversionRate(uint256 ethAmount) internal view returns (uint256){... */\n      swap2\n      swap1\n      pop\n      jump\t// out\n        /* \"Contracts/FundMe/PriceConverter.sol\":200:463  function getPrice() internal view returns(uint256) {... */\n    tag_76:\n        /* \"Contracts/FundMe/PriceConverter.sol\":242:249  uint256 */\n      0x00\n        /* \"Contracts/FundMe/PriceConverter.sol\":261:292  AggregatorV3Interface priceFeed */\n      dup1\n        /* \"Contracts/FundMe/PriceConverter.sol\":317:359  0x694AA1769357215DE4FAC081bf1f309aDC325306 */\n      0x694aa1769357215de4fac081bf1f309adc325306\n        /* \"Contracts/FundMe/PriceConverter.sol\":261:360  AggregatorV3Interface priceFeed = AggregatorV3Interface(0x694AA1769357215DE4FAC081bf1f309aDC325306) */\n      swap1\n      pop\n        /* \"Contracts/FundMe/PriceConverter.sol\":372:384  int256 price */\n      0x00\n        /* \"Contracts/FundMe/PriceConverter.sol\":391:400  priceFeed */\n      dup2\n        /* \"Contracts/FundMe/PriceConverter.sol\":391:416  priceFeed.latestRoundData */\n      0xffffffffffffffffffffffffffffffffffffffff\n      and\n      0xfeaf968c\n        /* \"Contracts/FundMe/PriceConverter.sol\":391:418  priceFeed.latestRoundData() */\n      mload(0x40)\n      dup2\n      0xffffffff\n      and\n      0xe0\n      shl\n      dup2\n      mstore\n      0x04\n      add\n      0xa0\n      mload(0x40)\n      dup1\n      dup4\n      sub\n      dup2\n      dup7\n      gas\n      staticcall\n      iszero\n      dup1\n      iszero\n      tag_83\n      jumpi\n      returndatasize\n      0x00\n      dup1\n      returndatacopy\n      revert(0x00, returndatasize)\n    tag_83:\n      pop\n      pop\n      pop\n      pop\n      mload(0x40)\n      returndatasize\n      not(0x1f)\n      0x1f\n      dup3\n      add\n      and\n      dup3\n      add\n      dup1\n      0x40\n      mstore\n      pop\n      dup2\n      add\n      swap1\n      tag_84\n      swap2\n      swap1\n      tag_85\n      jump\t// in\n    tag_84:\n        /* \"Contracts/FundMe/PriceConverter.sol\":370:418  (,int256 price,,,) = priceFeed.latestRoundData() */\n      pop\n      pop\n      pop\n      swap2\n      pop\n      pop\n        /* \"Contracts/FundMe/PriceConverter.sol\":451:455  1e10 */\n      0x02540be400\n        /* \"Contracts/FundMe/PriceConverter.sol\":443:448  price */\n      dup2\n        /* \"Contracts/FundMe/PriceConverter.sol\":443:455  price * 1e10 */\n      tag_86\n      swap2\n      swap1\n      tag_87\n      jump\t// in\n    tag_86:\n        /* \"Contracts/FundMe/PriceConverter.sol\":428:456  return uint256(price * 1e10) */\n      swap3\n      pop\n      pop\n      pop\n        /* \"Contracts/FundMe/PriceConverter.sol\":200:463  function getPrice() internal view returns(uint256) {... */\n      swap1\n      jump\t// out\n    tag_54:\n      dup3\n      dup1\n      sload\n      dup3\n      dup3\n      sstore\n      swap1\n      0x00\n      mstore\n      keccak256(0x00, 0x20)\n      swap1\n      dup2\n      add\n      swap3\n      dup3\n      iszero\n      tag_88\n      jumpi\n      swap2\n      0x20\n      mul\n      dup3\n      add\n    tag_89:\n      dup3\n      dup2\n      gt\n      iszero\n      tag_90\n      jumpi\n      dup3\n      mload\n      dup3\n      exp(0x0100, 0x00)\n      dup2\n      sload\n      dup2\n      0xffffffffffffffffffffffffffffffffffffffff\n      mul\n      not\n      and\n      swap1\n      dup4\n      0xffffffffffffffffffffffffffffffffffffffff\n      and\n      mul\n      or\n      swap1\n      sstore\n      pop\n      swap2\n      0x20\n      add\n      swap2\n      swap1\n      0x01\n      add\n      swap1\n      jump(tag_89)\n    tag_90:\n    tag_88:\n      pop\n      swap1\n      pop\n      tag_91\n      swap2\n      swap1\n      tag_92\n      jump\t// in\n    tag_91:\n      pop\n      swap1\n      jump\t// out\n    tag_92:\n    tag_93:\n      dup1\n      dup3\n      gt\n      iszero\n      tag_94\n      jumpi\n      0x00\n      dup2\n      0x00\n      swap1\n      sstore\n      pop\n      0x01\n      add\n      jump(tag_93)\n    tag_94:\n      pop\n      swap1\n      jump\t// out\n        /* \"#utility.yul\":88:205   */\n    tag_96:\n        /* \"#utility.yul\":197:198   */\n      0x00\n        /* \"#utility.yul\":194:195   */\n      dup1\n        /* \"#utility.yul\":187:199   */\n      revert\n        /* \"#utility.yul\":334:460   */\n    tag_98:\n        /* \"#utility.yul\":371:378   */\n      0x00\n        /* \"#utility.yul\":411:453   */\n      0xffffffffffffffffffffffffffffffffffffffff\n        /* \"#utility.yul\":404:409   */\n      dup3\n        /* \"#utility.yul\":400:454   */\n      and\n        /* \"#utility.yul\":389:454   */\n      swap1\n      pop\n        /* \"#utility.yul\":334:460   */\n      swap2\n      swap1\n      pop\n      jump\t// out\n        /* \"#utility.yul\":466:562   */\n    tag_99:\n        /* \"#utility.yul\":503:510   */\n      0x00\n        /* \"#utility.yul\":532:556   */\n      tag_132\n        /* \"#utility.yul\":550:555   */\n      dup3\n        /* \"#utility.yul\":532:556   */\n      tag_98\n      jump\t// in\n    tag_132:\n        /* \"#utility.yul\":521:556   */\n      swap1\n      pop\n        /* \"#utility.yul\":466:562   */\n      swap2\n      swap1\n      pop\n      jump\t// out\n        /* \"#utility.yul\":568:690   */\n    tag_100:\n        /* \"#utility.yul\":641:665   */\n      tag_134\n        /* \"#utility.yul\":659:664   */\n      dup2\n        /* \"#utility.yul\":641:665   */\n      tag_99\n      jump\t// in\n    tag_134:\n        /* \"#utility.yul\":634:639   */\n      dup2\n        /* \"#utility.yul\":631:666   */\n      eq\n        /* \"#utility.yul\":621:684   */\n      tag_135\n      jumpi\n        /* \"#utility.yul\":680:681   */\n      0x00\n        /* \"#utility.yul\":677:678   */\n      dup1\n        /* \"#utility.yul\":670:682   */\n      revert\n        /* \"#utility.yul\":621:684   */\n    tag_135:\n        /* \"#utility.yul\":568:690   */\n      pop\n      jump\t// out\n        /* \"#utility.yul\":696:835   */\n    tag_101:\n        /* \"#utility.yul\":742:747   */\n      0x00\n        /* \"#utility.yul\":780:786   */\n      dup2\n        /* \"#utility.yul\":767:787   */\n      calldataload\n        /* \"#utility.yul\":758:787   */\n      swap1\n      pop\n        /* \"#utility.yul\":796:829   */\n      tag_137\n        /* \"#utility.yul\":823:828   */\n      dup2\n        /* \"#utility.yul\":796:829   */\n      tag_100\n      jump\t// in\n    tag_137:\n        /* \"#utility.yul\":696:835   */\n      swap3\n      swap2\n      pop\n      pop\n      jump\t// out\n        /* \"#utility.yul\":841:1170   */\n    tag_14:\n        /* \"#utility.yul\":900:906   */\n      0x00\n        /* \"#utility.yul\":949:951   */\n      0x20\n        /* \"#utility.yul\":937:946   */\n      dup3\n        /* \"#utility.yul\":928:935   */\n      dup5\n        /* \"#utility.yul\":924:947   */\n      sub\n        /* \"#utility.yul\":920:952   */\n      slt\n        /* \"#utility.yul\":917:1036   */\n      iszero\n      tag_139\n      jumpi\n        /* \"#utility.yul\":955:1034   */\n      tag_140\n      tag_96\n      jump\t// in\n    tag_140:\n        /* \"#utility.yul\":917:1036   */\n    tag_139:\n        /* \"#utility.yul\":1075:1076   */\n      0x00\n        /* \"#utility.yul\":1100:1153   */\n      tag_141\n        /* \"#utility.yul\":1145:1152   */\n      dup5\n        /* \"#utility.yul\":1136:1142   */\n      dup3\n        /* \"#utility.yul\":1125:1134   */\n      dup6\n        /* \"#utility.yul\":1121:1143   */\n      add\n        /* \"#utility.yul\":1100:1153   */\n      tag_101\n      jump\t// in\n    tag_141:\n        /* \"#utility.yul\":1090:1153   */\n      swap2\n      pop\n        /* \"#utility.yul\":1046:1163   */\n      pop\n        /* \"#utility.yul\":841:1170   */\n      swap3\n      swap2\n      pop\n      pop\n      jump\t// out\n        /* \"#utility.yul\":1176:1253   */\n    tag_102:\n        /* \"#utility.yul\":1213:1220   */\n      0x00\n        /* \"#utility.yul\":1242:1247   */\n      dup2\n        /* \"#utility.yul\":1231:1247   */\n      swap1\n      pop\n        /* \"#utility.yul\":1176:1253   */\n      swap2\n      swap1\n      pop\n      jump\t// out\n        /* \"#utility.yul\":1259:1377   */\n    tag_103:\n        /* \"#utility.yul\":1346:1370   */\n      tag_144\n        /* \"#utility.yul\":1364:1369   */\n      dup2\n        /* \"#utility.yul\":1346:1370   */\n      tag_102\n      jump\t// in\n    tag_144:\n        /* \"#utility.yul\":1341:1344   */\n      dup3\n        /* \"#utility.yul\":1334:1371   */\n      mstore\n        /* \"#utility.yul\":1259:1377   */\n      pop\n      pop\n      jump\t// out\n        /* \"#utility.yul\":1383:1605   */\n    tag_17:\n        /* \"#utility.yul\":1476:1480   */\n      0x00\n        /* \"#utility.yul\":1514:1516   */\n      0x20\n        /* \"#utility.yul\":1503:1512   */\n      dup3\n        /* \"#utility.yul\":1499:1517   */\n      add\n        /* \"#utility.yul\":1491:1517   */\n      swap1\n      pop\n        /* \"#utility.yul\":1527:1598   */\n      tag_146\n        /* \"#utility.yul\":1595:1596   */\n      0x00\n        /* \"#utility.yul\":1584:1593   */\n      dup4\n        /* \"#utility.yul\":1580:1597   */\n      add\n        /* \"#utility.yul\":1571:1577   */\n      dup5\n        /* \"#utility.yul\":1527:1598   */\n      tag_103\n      jump\t// in\n    tag_146:\n        /* \"#utility.yul\":1383:1605   */\n      swap3\n      swap2\n      pop\n      pop\n      jump\t// out\n        /* \"#utility.yul\":1611:1729   */\n    tag_104:\n        /* \"#utility.yul\":1698:1722   */\n      tag_148\n        /* \"#utility.yul\":1716:1721   */\n      dup2\n        /* \"#utility.yul\":1698:1722   */\n      tag_99\n      jump\t// in\n    tag_148:\n        /* \"#utility.yul\":1693:1696   */\n      dup3\n        /* \"#utility.yul\":1686:1723   */\n      mstore\n        /* \"#utility.yul\":1611:1729   */\n      pop\n      pop\n      jump\t// out\n        /* \"#utility.yul\":1735:1957   */\n    tag_26:\n        /* \"#utility.yul\":1828:1832   */\n      0x00\n        /* \"#utility.yul\":1866:1868   */\n      0x20\n        /* \"#utility.yul\":1855:1864   */\n      dup3\n        /* \"#utility.yul\":1851:1869   */\n      add\n        /* \"#utility.yul\":1843:1869   */\n      swap1\n      pop\n        /* \"#utility.yul\":1879:1950   */\n      tag_150\n        /* \"#utility.yul\":1947:1948   */\n      0x00\n        /* \"#utility.yul\":1936:1945   */\n      dup4\n        /* \"#utility.yul\":1932:1949   */\n      add\n        /* \"#utility.yul\":1923:1929   */\n      dup5\n        /* \"#utility.yul\":1879:1950   */\n      tag_104\n      jump\t// in\n    tag_150:\n        /* \"#utility.yul\":1735:1957   */\n      swap3\n      swap2\n      pop\n      pop\n      jump\t// out\n        /* \"#utility.yul\":1963:2085   */\n    tag_105:\n        /* \"#utility.yul\":2036:2060   */\n      tag_152\n        /* \"#utility.yul\":2054:2059   */\n      dup2\n        /* \"#utility.yul\":2036:2060   */\n      tag_102\n      jump\t// in\n    tag_152:\n        /* \"#utility.yul\":2029:2034   */\n      dup2\n        /* \"#utility.yul\":2026:2061   */\n      eq\n        /* \"#utility.yul\":2016:2079   */\n      tag_153\n      jumpi\n        /* \"#utility.yul\":2075:2076   */\n      0x00\n        /* \"#utility.yul\":2072:2073   */\n      dup1\n        /* \"#utility.yul\":2065:2077   */\n      revert\n        /* \"#utility.yul\":2016:2079   */\n    tag_153:\n        /* \"#utility.yul\":1963:2085   */\n      pop\n      jump\t// out\n        /* \"#utility.yul\":2091:2230   */\n    tag_106:\n        /* \"#utility.yul\":2137:2142   */\n      0x00\n        /* \"#utility.yul\":2175:2181   */\n      dup2\n        /* \"#utility.yul\":2162:2182   */\n      calldataload\n        /* \"#utility.yul\":2153:2182   */\n      swap1\n      pop\n        /* \"#utility.yul\":2191:2224   */\n      tag_155\n        /* \"#utility.yul\":2218:2223   */\n      dup2\n        /* \"#utility.yul\":2191:2224   */\n      tag_105\n      jump\t// in\n    tag_155:\n        /* \"#utility.yul\":2091:2230   */\n      swap3\n      swap2\n      pop\n      pop\n      jump\t// out\n        /* \"#utility.yul\":2236:2565   */\n    tag_32:\n        /* \"#utility.yul\":2295:2301   */\n      0x00\n        /* \"#utility.yul\":2344:2346   */\n      0x20\n        /* \"#utility.yul\":2332:2341   */\n      dup3\n        /* \"#utility.yul\":2323:2330   */\n      dup5\n        /* \"#utility.yul\":2319:2342   */\n      sub\n        /* \"#utility.yul\":2315:2347   */\n      slt\n        /* \"#utility.yul\":2312:2431   */\n      iszero\n      tag_157\n      jumpi\n        /* \"#utility.yul\":2350:2429   */\n      tag_158\n      tag_96\n      jump\t// in\n    tag_158:\n        /* \"#utility.yul\":2312:2431   */\n    tag_157:\n        /* \"#utility.yul\":2470:2471   */\n      0x00\n        /* \"#utility.yul\":2495:2548   */\n      tag_159\n        /* \"#utility.yul\":2540:2547   */\n      dup5\n        /* \"#utility.yul\":2531:2537   */\n      dup3\n        /* \"#utility.yul\":2520:2529   */\n      dup6\n        /* \"#utility.yul\":2516:2538   */\n      add\n        /* \"#utility.yul\":2495:2548   */\n      tag_106\n      jump\t// in\n    tag_159:\n        /* \"#utility.yul\":2485:2548   */\n      swap2\n      pop\n        /* \"#utility.yul\":2441:2558   */\n      pop\n        /* \"#utility.yul\":2236:2565   */\n      swap3\n      swap2\n      pop\n      pop\n      jump\t// out\n        /* \"#utility.yul\":2571:2740   */\n    tag_107:\n        /* \"#utility.yul\":2655:2666   */\n      0x00\n        /* \"#utility.yul\":2689:2695   */\n      dup3\n        /* \"#utility.yul\":2684:2687   */\n      dup3\n        /* \"#utility.yul\":2677:2696   */\n      mstore\n        /* \"#utility.yul\":2729:2733   */\n      0x20\n        /* \"#utility.yul\":2724:2727   */\n      dup3\n        /* \"#utility.yul\":2720:2734   */\n      add\n        /* \"#utility.yul\":2705:2734   */\n      swap1\n      pop\n        /* \"#utility.yul\":2571:2740   */\n      swap3\n      swap2\n      pop\n      pop\n      jump\t// out\n        /* \"#utility.yul\":2746:2910   */\n    tag_108:\n        /* \"#utility.yul\":2886:2902   */\n      0x4d757374206265206f776e657221000000000000000000000000000000000000\n        /* \"#utility.yul\":2882:2883   */\n      0x00\n        /* \"#utility.yul\":2874:2880   */\n      dup3\n        /* \"#utility.yul\":2870:2884   */\n      add\n        /* \"#utility.yul\":2863:2903   */\n      mstore\n        /* \"#utility.yul\":2746:2910   */\n      pop\n      jump\t// out\n        /* \"#utility.yul\":2916:3282   */\n    tag_109:\n        /* \"#utility.yul\":3058:3061   */\n      0x00\n        /* \"#utility.yul\":3079:3146   */\n      tag_163\n        /* \"#utility.yul\":3143:3145   */\n      0x0e\n        /* \"#utility.yul\":3138:3141   */\n      dup4\n        /* \"#utility.yul\":3079:3146   */\n      tag_107\n      jump\t// in\n    tag_163:\n        /* \"#utility.yul\":3072:3146   */\n      swap2\n      pop\n        /* \"#utility.yul\":3155:3248   */\n      tag_164\n        /* \"#utility.yul\":3244:3247   */\n      dup3\n        /* \"#utility.yul\":3155:3248   */\n      tag_108\n      jump\t// in\n    tag_164:\n        /* \"#utility.yul\":3273:3275   */\n      0x20\n        /* \"#utility.yul\":3268:3271   */\n      dup3\n        /* \"#utility.yul\":3264:3276   */\n      add\n        /* \"#utility.yul\":3257:3276   */\n      swap1\n      pop\n        /* \"#utility.yul\":2916:3282   */\n      swap2\n      swap1\n      pop\n      jump\t// out\n        /* \"#utility.yul\":3288:3707   */\n    tag_38:\n        /* \"#utility.yul\":3454:3458   */\n      0x00\n        /* \"#utility.yul\":3492:3494   */\n      0x20\n        /* \"#utility.yul\":3481:3490   */\n      dup3\n        /* \"#utility.yul\":3477:3495   */\n      add\n        /* \"#utility.yul\":3469:3495   */\n      swap1\n      pop\n        /* \"#utility.yul\":3541:3550   */\n      dup2\n        /* \"#utility.yul\":3535:3539   */\n      dup2\n        /* \"#utility.yul\":3531:3551   */\n      sub\n        /* \"#utility.yul\":3527:3528   */\n      0x00\n        /* \"#utility.yul\":3516:3525   */\n      dup4\n        /* \"#utility.yul\":3512:3529   */\n      add\n        /* \"#utility.yul\":3505:3552   */\n      mstore\n        /* \"#utility.yul\":3569:3700   */\n      tag_166\n        /* \"#utility.yul\":3695:3699   */\n      dup2\n        /* \"#utility.yul\":3569:3700   */\n      tag_109\n      jump\t// in\n    tag_166:\n        /* \"#utility.yul\":3561:3700   */\n      swap1\n      pop\n        /* \"#utility.yul\":3288:3707   */\n      swap2\n      swap1\n      pop\n      jump\t// out\n        /* \"#utility.yul\":3713:3893   */\n    tag_45:\n        /* \"#utility.yul\":3761:3838   */\n      0x4e487b7100000000000000000000000000000000000000000000000000000000\n        /* \"#utility.yul\":3758:3759   */\n      0x00\n        /* \"#utility.yul\":3751:3839   */\n      mstore\n        /* \"#utility.yul\":3858:3862   */\n      0x32\n        /* \"#utility.yul\":3855:3856   */\n      0x04\n        /* \"#utility.yul\":3848:3863   */\n      mstore\n        /* \"#utility.yul\":3882:3886   */\n      0x24\n        /* \"#utility.yul\":3879:3880   */\n      0x00\n        /* \"#utility.yul\":3872:3887   */\n      revert\n        /* \"#utility.yul\":3899:4079   */\n    tag_110:\n        /* \"#utility.yul\":3947:4024   */\n      0x4e487b7100000000000000000000000000000000000000000000000000000000\n        /* \"#utility.yul\":3944:3945   */\n      0x00\n        /* \"#utility.yul\":3937:4025   */\n      mstore\n        /* \"#utility.yul\":4044:4048   */\n      0x11\n        /* \"#utility.yul\":4041:4042   */\n      0x04\n        /* \"#utility.yul\":4034:4049   */\n      mstore\n        /* \"#utility.yul\":4068:4072   */\n      0x24\n        /* \"#utility.yul\":4065:4066   */\n      0x00\n        /* \"#utility.yul\":4058:4073   */\n      revert\n        /* \"#utility.yul\":4085:4318   */\n    tag_48:\n        /* \"#utility.yul\":4124:4127   */\n      0x00\n        /* \"#utility.yul\":4147:4171   */\n      tag_170\n        /* \"#utility.yul\":4165:4170   */\n      dup3\n        /* \"#utility.yul\":4147:4171   */\n      tag_102\n      jump\t// in\n    tag_170:\n        /* \"#utility.yul\":4138:4171   */\n      swap2\n      pop\n        /* \"#utility.yul\":4193:4259   */\n      0xffffffffffffffffffffffffffffffffffffffffffffffffffffffffffffffff\n        /* \"#utility.yul\":4186:4191   */\n      dup3\n        /* \"#utility.yul\":4183:4260   */\n      sub\n        /* \"#utility.yul\":4180:4283   */\n      tag_171\n      jumpi\n        /* \"#utility.yul\":4263:4281   */\n      tag_172\n      tag_110\n      jump\t// in\n    tag_172:\n        /* \"#utility.yul\":4180:4283   */\n    tag_171:\n        /* \"#utility.yul\":4310:4311   */\n      0x01\n        /* \"#utility.yul\":4303:4308   */\n      dup3\n        /* \"#utility.yul\":4299:4312   */\n      add\n        /* \"#utility.yul\":4292:4312   */\n      swap1\n      pop\n        /* \"#utility.yul\":4085:4318   */\n      swap2\n      swap1\n      pop\n      jump\t// out\n        /* \"#utility.yul\":4324:4504   */\n    tag_51:\n        /* \"#utility.yul\":4372:4449   */\n      0x4e487b7100000000000000000000000000000000000000000000000000000000\n        /* \"#utility.yul\":4369:4370   */\n      0x00\n        /* \"#utility.yul\":4362:4450   */\n      mstore\n        /* \"#utility.yul\":4469:4473   */\n      0x41\n        /* \"#utility.yul\":4466:4467   */\n      0x04\n        /* \"#utility.yul\":4459:4474   */\n      mstore\n        /* \"#utility.yul\":4493:4497   */\n      0x24\n        /* \"#utility.yul\":4490:4491   */\n      0x00\n        /* \"#utility.yul\":4483:4498   */\n      revert\n        /* \"#utility.yul\":4510:4657   */\n    tag_111:\n        /* \"#utility.yul\":4611:4622   */\n      0x00\n        /* \"#utility.yul\":4648:4651   */\n      dup2\n        /* \"#utility.yul\":4633:4651   */\n      swap1\n      pop\n        /* \"#utility.yul\":4510:4657   */\n      swap3\n      swap2\n      pop\n      pop\n      jump\t// out\n        /* \"#utility.yul\":4663:4777   */\n    tag_112:\n      pop\n      jump\t// out\n        /* \"#utility.yul\":4783:5181   */\n    tag_113:\n        /* \"#utility.yul\":4942:4945   */\n      0x00\n        /* \"#utility.yul\":4963:5046   */\n      tag_177\n        /* \"#utility.yul\":5044:5045   */\n      0x00\n        /* \"#utility.yul\":5039:5042   */\n      dup4\n        /* \"#utility.yul\":4963:5046   */\n      tag_111\n      jump\t// in\n    tag_177:\n        /* \"#utility.yul\":4956:5046   */\n      swap2\n      pop\n        /* \"#utility.yul\":5055:5148   */\n      tag_178\n        /* \"#utility.yul\":5144:5147   */\n      dup3\n        /* \"#utility.yul\":5055:5148   */\n      tag_112\n      jump\t// in\n    tag_178:\n        /* \"#utility.yul\":5173:5174   */\n      0x00\n        /* \"#utility.yul\":5168:5171   */\n      dup3\n        /* \"#utility.yul\":5164:5175   */\n      add\n        /* \"#utility.yul\":5157:5175   */\n      swap1\n      pop\n        /* \"#utility.yul\":4783:5181   */\n      swap2\n      swap1\n      pop\n      jump\t// out\n        /* \"#utility.yul\":5187:5566   */\n    tag_56:\n        /* \"#utility.yul\":5371:5374   */\n      0x00\n        /* \"#utility.yul\":5393:5540   */\n      tag_180\n        /* \"#utility.yul\":5536:5539   */\n      dup3\n        /* \"#utility.yul\":5393:5540   */\n      tag_113\n      jump\t// in\n    tag_180:\n        /* \"#utility.yul\":5386:5540   */\n      swap2\n      pop\n        /* \"#utility.yul\":5557:5560   */\n      dup2\n        /* \"#utility.yul\":5550:5560   */\n      swap1\n      pop\n        /* \"#utility.yul\":5187:5566   */\n      swap2\n      swap1\n      pop\n      jump\t// out\n        /* \"#utility.yul\":5572:5733   */\n    tag_114:\n        /* \"#utility.yul\":5712:5725   */\n      0x43616c6c206661696c6564000000000000000000000000000000000000000000\n        /* \"#utility.yul\":5708:5709   */\n      0x00\n        /* \"#utility.yul\":5700:5706   */\n      dup3\n        /* \"#utility.yul\":5696:5710   */\n      add\n        /* \"#utility.yul\":5689:5726   */\n      mstore\n        /* \"#utility.yul\":5572:5733   */\n      pop\n      jump\t// out\n        /* \"#utility.yul\":5739:6105   */\n    tag_115:\n        /* \"#utility.yul\":5881:5884   */\n      0x00\n        /* \"#utility.yul\":5902:5969   */\n      tag_183\n        /* \"#utility.yul\":5966:5968   */\n      0x0b\n        /* \"#utility.yul\":5961:5964   */\n      dup4\n        /* \"#utility.yul\":5902:5969   */\n      tag_107\n      jump\t// in\n    tag_183:\n        /* \"#utility.yul\":5895:5969   */\n      swap2\n      pop\n        /* \"#utility.yul\":5978:6071   */\n      tag_184\n        /* \"#utility.yul\":6067:6070   */\n      dup3\n        /* \"#utility.yul\":5978:6071   */\n      tag_114\n      jump\t// in\n    tag_184:\n        /* \"#utility.yul\":6096:6098   */\n      0x20\n        /* \"#utility.yul\":6091:6094   */\n      dup3\n        /* \"#utility.yul\":6087:6099   */\n      add\n        /* \"#utility.yul\":6080:6099   */\n      swap1\n      pop\n        /* \"#utility.yul\":5739:6105   */\n      swap2\n      swap1\n      pop\n      jump\t// out\n        /* \"#utility.yul\":6111:6530   */\n    tag_62:\n        /* \"#utility.yul\":6277:6281   */\n      0x00\n        /* \"#utility.yul\":6315:6317   */\n      0x20\n        /* \"#utility.yul\":6304:6313   */\n      dup3\n        /* \"#utility.yul\":6300:6318   */\n      add\n        /* \"#utility.yul\":6292:6318   */\n      swap1\n      pop\n        /* \"#utility.yul\":6364:6373   */\n      dup2\n        /* \"#utility.yul\":6358:6362   */\n      dup2\n        /* \"#utility.yul\":6354:6374   */\n      sub\n        /* \"#utility.yul\":6350:6351   */\n      0x00\n        /* \"#utility.yul\":6339:6348   */\n      dup4\n        /* \"#utility.yul\":6335:6352   */\n      add\n        /* \"#utility.yul\":6328:6375   */\n      mstore\n        /* \"#utility.yul\":6392:6523   */\n      tag_186\n        /* \"#utility.yul\":6518:6522   */\n      dup2\n        /* \"#utility.yul\":6392:6523   */\n      tag_115\n      jump\t// in\n    tag_186:\n        /* \"#utility.yul\":6384:6523   */\n      swap1\n      pop\n        /* \"#utility.yul\":6111:6530   */\n      swap2\n      swap1\n      pop\n      jump\t// out\n        /* \"#utility.yul\":6536:6709   */\n    tag_116:\n        /* \"#utility.yul\":6676:6701   */\n      0x6469646e27742073656e6420656e6f7567687420455448000000000000000000\n        /* \"#utility.yul\":6672:6673   */\n      0x00\n        /* \"#utility.yul\":6664:6670   */\n      dup3\n        /* \"#utility.yul\":6660:6674   */\n      add\n        /* \"#utility.yul\":6653:6702   */\n      mstore\n        /* \"#utility.yul\":6536:6709   */\n      pop\n      jump\t// out\n        /* \"#utility.yul\":6715:7081   */\n    tag_117:\n        /* \"#utility.yul\":6857:6860   */\n      0x00\n        /* \"#utility.yul\":6878:6945   */\n      tag_189\n        /* \"#utility.yul\":6942:6944   */\n      0x17\n        /* \"#utility.yul\":6937:6940   */\n      dup4\n        /* \"#utility.yul\":6878:6945   */\n      tag_107\n      jump\t// in\n    tag_189:\n        /* \"#utility.yul\":6871:6945   */\n      swap2\n      pop\n        /* \"#utility.yul\":6954:7047   */\n      tag_190\n        /* \"#utility.yul\":7043:7046   */\n      dup3\n        /* \"#utility.yul\":6954:7047   */\n      tag_116\n      jump\t// in\n    tag_190:\n        /* \"#utility.yul\":7072:7074   */\n      0x20\n        /* \"#utility.yul\":7067:7070   */\n      dup3\n        /* \"#utility.yul\":7063:7075   */\n      add\n        /* \"#utility.yul\":7056:7075   */\n      swap1\n      pop\n        /* \"#utility.yul\":6715:7081   */\n      swap2\n      swap1\n      pop\n      jump\t// out\n        /* \"#utility.yul\":7087:7506   */\n    tag_68:\n        /* \"#utility.yul\":7253:7257   */\n      0x00\n        /* \"#utility.yul\":7291:7293   */\n      0x20\n        /* \"#utility.yul\":7280:7289   */\n      dup3\n        /* \"#utility.yul\":7276:7294   */\n      add\n        /* \"#utility.yul\":7268:7294   */\n      swap1\n      pop\n        /* \"#utility.yul\":7340:7349   */\n      dup2\n        /* \"#utility.yul\":7334:7338   */\n      dup2\n        /* \"#utility.yul\":7330:7350   */\n      sub\n        /* \"#utility.yul\":7326:7327   */\n      0x00\n        /* \"#utility.yul\":7315:7324   */\n      dup4\n        /* \"#utility.yul\":7311:7328   */\n      add\n        /* \"#utility.yul\":7304:7351   */\n      mstore\n        /* \"#utility.yul\":7368:7499   */\n      tag_192\n        /* \"#utility.yul\":7494:7498   */\n      dup2\n        /* \"#utility.yul\":7368:7499   */\n      tag_117\n      jump\t// in\n    tag_192:\n        /* \"#utility.yul\":7360:7499   */\n      swap1\n      pop\n        /* \"#utility.yul\":7087:7506   */\n      swap2\n      swap1\n      pop\n      jump\t// out\n        /* \"#utility.yul\":7512:7703   */\n    tag_71:\n        /* \"#utility.yul\":7552:7555   */\n      0x00\n        /* \"#utility.yul\":7571:7591   */\n      tag_194\n        /* \"#utility.yul\":7589:7590   */\n      dup3\n        /* \"#utility.yul\":7571:7591   */\n      tag_102\n      jump\t// in\n    tag_194:\n        /* \"#utility.yul\":7566:7591   */\n      swap2\n      pop\n        /* \"#utility.yul\":7605:7625   */\n      tag_195\n        /* \"#utility.yul\":7623:7624   */\n      dup4\n        /* \"#utility.yul\":7605:7625   */\n      tag_102\n      jump\t// in\n    tag_195:\n        /* \"#utility.yul\":7600:7625   */\n      swap3\n      pop\n        /* \"#utility.yul\":7648:7649   */\n      dup3\n        /* \"#utility.yul\":7645:7646   */\n      dup3\n        /* \"#utility.yul\":7641:7650   */\n      add\n        /* \"#utility.yul\":7634:7650   */\n      swap1\n      pop\n        /* \"#utility.yul\":7669:7672   */\n      dup1\n        /* \"#utility.yul\":7666:7667   */\n      dup3\n        /* \"#utility.yul\":7663:7673   */\n      gt\n        /* \"#utility.yul\":7660:7696   */\n      iszero\n      tag_196\n      jumpi\n        /* \"#utility.yul\":7676:7694   */\n      tag_197\n      tag_110\n      jump\t// in\n    tag_197:\n        /* \"#utility.yul\":7660:7696   */\n    tag_196:\n        /* \"#utility.yul\":7512:7703   */\n      swap3\n      swap2\n      pop\n      pop\n      jump\t// out\n        /* \"#utility.yul\":7709:8119   */\n    tag_78:\n        /* \"#utility.yul\":7749:7756   */\n      0x00\n        /* \"#utility.yul\":7772:7792   */\n      tag_199\n        /* \"#utility.yul\":7790:7791   */\n      dup3\n        /* \"#utility.yul\":7772:7792   */\n      tag_102\n      jump\t// in\n    tag_199:\n        /* \"#utility.yul\":7767:7792   */\n      swap2\n      pop\n        /* \"#utility.yul\":7806:7826   */\n      tag_200\n        /* \"#utility.yul\":7824:7825   */\n      dup4\n        /* \"#utility.yul\":7806:7826   */\n      tag_102\n      jump\t// in\n    tag_200:\n        /* \"#utility.yul\":7801:7826   */\n      swap3\n      pop\n        /* \"#utility.yul\":7861:7862   */\n      dup3\n        /* \"#utility.yul\":7858:7859   */\n      dup3\n        /* \"#utility.yul\":7854:7863   */\n      mul\n        /* \"#utility.yul\":7883:7913   */\n      tag_201\n        /* \"#utility.yul\":7901:7912   */\n      dup2\n        /* \"#utility.yul\":7883:7913   */\n      tag_102\n      jump\t// in\n    tag_201:\n        /* \"#utility.yul\":7872:7913   */\n      swap2\n      pop\n        /* \"#utility.yul\":8062:8063   */\n      dup3\n        /* \"#utility.yul\":8053:8060   */\n      dup3\n        /* \"#utility.yul\":8049:8064   */\n      div\n        /* \"#utility.yul\":8046:8047   */\n      dup5\n        /* \"#utility.yul\":8043:8065   */\n      eq\n        /* \"#utility.yul\":8023:8024   */\n      dup4\n        /* \"#utility.yul\":8016:8025   */\n      iszero\n        /* \"#utility.yul\":7996:8079   */\n      or\n        /* \"#utility.yul\":7973:8112   */\n      tag_202\n      jumpi\n        /* \"#utility.yul\":8092:8110   */\n      tag_203\n      tag_110\n      jump\t// in\n    tag_203:\n        /* \"#utility.yul\":7973:8112   */\n    tag_202:\n        /* \"#utility.yul\":7757:8119   */\n      pop\n        /* \"#utility.yul\":7709:8119   */\n      swap3\n      swap2\n      pop\n      pop\n      jump\t// out\n        /* \"#utility.yul\":8125:8305   */\n    tag_118:\n        /* \"#utility.yul\":8173:8250   */\n      0x4e487b7100000000000000000000000000000000000000000000000000000000\n        /* \"#utility.yul\":8170:8171   */\n      0x00\n        /* \"#utility.yul\":8163:8251   */\n      mstore\n        /* \"#utility.yul\":8270:8274   */\n      0x12\n        /* \"#utility.yul\":8267:8268   */\n      0x04\n        /* \"#utility.yul\":8260:8275   */\n      mstore\n        /* \"#utility.yul\":8294:8298   */\n      0x24\n        /* \"#utility.yul\":8291:8292   */\n      0x00\n        /* \"#utility.yul\":8284:8299   */\n      revert\n        /* \"#utility.yul\":8311:8496   */\n    tag_80:\n        /* \"#utility.yul\":8351:8352   */\n      0x00\n        /* \"#utility.yul\":8368:8388   */\n      tag_206\n        /* \"#utility.yul\":8386:8387   */\n      dup3\n        /* \"#utility.yul\":8368:8388   */\n      tag_102\n      jump\t// in\n    tag_206:\n        /* \"#utility.yul\":8363:8388   */\n      swap2\n      pop\n        /* \"#utility.yul\":8402:8422   */\n      tag_207\n        /* \"#utility.yul\":8420:8421   */\n      dup4\n        /* \"#utility.yul\":8402:8422   */\n      tag_102\n      jump\t// in\n    tag_207:\n        /* \"#utility.yul\":8397:8422   */\n      swap3\n      pop\n        /* \"#utility.yul\":8441:8442   */\n      dup3\n        /* \"#utility.yul\":8431:8466   */\n      tag_208\n      jumpi\n        /* \"#utility.yul\":8446:8464   */\n      tag_209\n      tag_118\n      jump\t// in\n    tag_209:\n        /* \"#utility.yul\":8431:8466   */\n    tag_208:\n        /* \"#utility.yul\":8488:8489   */\n      dup3\n        /* \"#utility.yul\":8485:8486   */\n      dup3\n        /* \"#utility.yul\":8481:8490   */\n      div\n        /* \"#utility.yul\":8476:8490   */\n      swap1\n      pop\n        /* \"#utility.yul\":8311:8496   */\n      swap3\n      swap2\n      pop\n      pop\n      jump\t// out\n        /* \"#utility.yul\":8502:8607   */\n    tag_119:\n        /* \"#utility.yul\":8538:8545   */\n      0x00\n        /* \"#utility.yul\":8578:8600   */\n      0xffffffffffffffffffff\n        /* \"#utility.yul\":8571:8576   */\n      dup3\n        /* \"#utility.yul\":8567:8601   */\n      and\n        /* \"#utility.yul\":8556:8601   */\n      swap1\n      pop\n        /* \"#utility.yul\":8502:8607   */\n      swap2\n      swap1\n      pop\n      jump\t// out\n        /* \"#utility.yul\":8613:8733   */\n    tag_120:\n        /* \"#utility.yul\":8685:8708   */\n      tag_212\n        /* \"#utility.yul\":8702:8707   */\n      dup2\n        /* \"#utility.yul\":8685:8708   */\n      tag_119\n      jump\t// in\n    tag_212:\n        /* \"#utility.yul\":8678:8683   */\n      dup2\n        /* \"#utility.yul\":8675:8709   */\n      eq\n        /* \"#utility.yul\":8665:8727   */\n      tag_213\n      jumpi\n        /* \"#utility.yul\":8723:8724   */\n      0x00\n        /* \"#utility.yul\":8720:8721   */\n      dup1\n        /* \"#utility.yul\":8713:8725   */\n      revert\n        /* \"#utility.yul\":8665:8727   */\n    tag_213:\n        /* \"#utility.yul\":8613:8733   */\n      pop\n      jump\t// out\n        /* \"#utility.yul\":8739:8880   */\n    tag_121:\n        /* \"#utility.yul\":8795:8800   */\n      0x00\n        /* \"#utility.yul\":8826:8832   */\n      dup2\n        /* \"#utility.yul\":8820:8833   */\n      mload\n        /* \"#utility.yul\":8811:8833   */\n      swap1\n      pop\n        /* \"#utility.yul\":8842:8874   */\n      tag_215\n        /* \"#utility.yul\":8868:8873   */\n      dup2\n        /* \"#utility.yul\":8842:8874   */\n      tag_120\n      jump\t// in\n    tag_215:\n        /* \"#utility.yul\":8739:8880   */\n      swap3\n      swap2\n      pop\n      pop\n      jump\t// out\n        /* \"#utility.yul\":8886:8962   */\n    tag_122:\n        /* \"#utility.yul\":8922:8929   */\n      0x00\n        /* \"#utility.yul\":8951:8956   */\n      dup2\n        /* \"#utility.yul\":8940:8956   */\n      swap1\n      pop\n        /* \"#utility.yul\":8886:8962   */\n      swap2\n      swap1\n      pop\n      jump\t// out\n        /* \"#utility.yul\":8968:9088   */\n    tag_123:\n        /* \"#utility.yul\":9040:9063   */\n      tag_218\n        /* \"#utility.yul\":9057:9062   */\n      dup2\n        /* \"#utility.yul\":9040:9063   */\n      tag_122\n      jump\t// in\n    tag_218:\n        /* \"#utility.yul\":9033:9038   */\n      dup2\n        /* \"#utility.yul\":9030:9064   */\n      eq\n        /* \"#utility.yul\":9020:9082   */\n      tag_219\n      jumpi\n        /* \"#utility.yul\":9078:9079   */\n      0x00\n        /* \"#utility.yul\":9075:9076   */\n      dup1\n        /* \"#utility.yul\":9068:9080   */\n      revert\n        /* \"#utility.yul\":9020:9082   */\n    tag_219:\n        /* \"#utility.yul\":8968:9088   */\n      pop\n      jump\t// out\n        /* \"#utility.yul\":9094:9235   */\n    tag_124:\n        /* \"#utility.yul\":9150:9155   */\n      0x00\n        /* \"#utility.yul\":9181:9187   */\n      dup2\n        /* \"#utility.yul\":9175:9188   */\n      mload\n        /* \"#utility.yul\":9166:9188   */\n      swap1\n      pop\n        /* \"#utility.yul\":9197:9229   */\n      tag_221\n        /* \"#utility.yul\":9223:9228   */\n      dup2\n        /* \"#utility.yul\":9197:9229   */\n      tag_123\n      jump\t// in\n    tag_221:\n        /* \"#utility.yul\":9094:9235   */\n      swap3\n      swap2\n      pop\n      pop\n      jump\t// out\n        /* \"#utility.yul\":9241:9384   */\n    tag_125:\n        /* \"#utility.yul\":9298:9303   */\n      0x00\n        /* \"#utility.yul\":9329:9335   */\n      dup2\n        /* \"#utility.yul\":9323:9336   */\n      mload\n        /* \"#utility.yul\":9314:9336   */\n      swap1\n      pop\n        /* \"#utility.yul\":9345:9378   */\n      tag_223\n        /* \"#utility.yul\":9372:9377   */\n      dup2\n        /* \"#utility.yul\":9345:9378   */\n      tag_105\n      jump\t// in\n    tag_223:\n        /* \"#utility.yul\":9241:9384   */\n      swap3\n      swap2\n      pop\n      pop\n      jump\t// out\n        /* \"#utility.yul\":9390:10361   */\n    tag_85:\n        /* \"#utility.yul\":9493:9499   */\n      0x00\n        /* \"#utility.yul\":9501:9507   */\n      dup1\n        /* \"#utility.yul\":9509:9515   */\n      0x00\n        /* \"#utility.yul\":9517:9523   */\n      dup1\n        /* \"#utility.yul\":9525:9531   */\n      0x00\n        /* \"#utility.yul\":9574:9577   */\n      0xa0\n        /* \"#utility.yul\":9562:9571   */\n      dup7\n        /* \"#utility.yul\":9553:9560   */\n      dup9\n        /* \"#utility.yul\":9549:9572   */\n      sub\n        /* \"#utility.yul\":9545:9578   */\n      slt\n        /* \"#utility.yul\":9542:9662   */\n      iszero\n      tag_225\n      jumpi\n        /* \"#utility.yul\":9581:9660   */\n      tag_226\n      tag_96\n      jump\t// in\n    tag_226:\n        /* \"#utility.yul\":9542:9662   */\n    tag_225:\n        /* \"#utility.yul\":9701:9702   */\n      0x00\n        /* \"#utility.yul\":9726:9789   */\n      tag_227\n        /* \"#utility.yul\":9781:9788   */\n      dup9\n        /* \"#utility.yul\":9772:9778   */\n      dup3\n        /* \"#utility.yul\":9761:9770   */\n      dup10\n        /* \"#utility.yul\":9757:9779   */\n      add\n        /* \"#utility.yul\":9726:9789   */\n      tag_121\n      jump\t// in\n    tag_227:\n        /* \"#utility.yul\":9716:9789   */\n      swap6\n      pop\n        /* \"#utility.yul\":9672:9799   */\n      pop\n        /* \"#utility.yul\":9838:9840   */\n      0x20\n        /* \"#utility.yul\":9864:9927   */\n      tag_228\n        /* \"#utility.yul\":9919:9926   */\n      dup9\n        /* \"#utility.yul\":9910:9916   */\n      dup3\n        /* \"#utility.yul\":9899:9908   */\n      dup10\n        /* \"#utility.yul\":9895:9917   */\n      add\n        /* \"#utility.yul\":9864:9927   */\n      tag_124\n      jump\t// in\n    tag_228:\n        /* \"#utility.yul\":9854:9927   */\n      swap5\n      pop\n        /* \"#utility.yul\":9809:9937   */\n      pop\n        /* \"#utility.yul\":9976:9978   */\n      0x40\n        /* \"#utility.yul\":10002:10066   */\n      tag_229\n        /* \"#utility.yul\":10058:10065   */\n      dup9\n        /* \"#utility.yul\":10049:10055   */\n      dup3\n        /* \"#utility.yul\":10038:10047   */\n      dup10\n        /* \"#utility.yul\":10034:10056   */\n      add\n        /* \"#utility.yul\":10002:10066   */\n      tag_125\n      jump\t// in\n    tag_229:\n        /* \"#utility.yul\":9992:10066   */\n      swap4\n      pop\n        /* \"#utility.yul\":9947:10076   */\n      pop\n        /* \"#utility.yul\":10115:10117   */\n      0x60\n        /* \"#utility.yul\":10141:10205   */\n      tag_230\n        /* \"#utility.yul\":10197:10204   */\n      dup9\n        /* \"#utility.yul\":10188:10194   */\n      dup3\n        /* \"#utility.yul\":10177:10186   */\n      dup10\n        /* \"#utility.yul\":10173:10195   */\n      add\n        /* \"#utility.yul\":10141:10205   */\n      tag_125\n      jump\t// in\n    tag_230:\n        /* \"#utility.yul\":10131:10205   */\n      swap3\n      pop\n        /* \"#utility.yul\":10086:10215   */\n      pop\n        /* \"#utility.yul\":10254:10257   */\n      0x80\n        /* \"#utility.yul\":10281:10344   */\n      tag_231\n        /* \"#utility.yul\":10336:10343   */\n      dup9\n        /* \"#utility.yul\":10327:10333   */\n      dup3\n        /* \"#utility.yul\":10316:10325   */\n      dup10\n        /* \"#utility.yul\":10312:10334   */\n      add\n        /* \"#utility.yul\":10281:10344   */\n      tag_121\n      jump\t// in\n    tag_231:\n        /* \"#utility.yul\":10271:10344   */\n      swap2\n      pop\n        /* \"#utility.yul\":10225:10354   */\n      pop\n        /* \"#utility.yul\":9390:10361   */\n      swap3\n      swap6\n      pop\n      swap3\n      swap6\n      swap1\n      swap4\n      pop\n      jump\t// out\n        /* \"#utility.yul\":10367:10923   */\n    tag_87:\n        /* \"#utility.yul\":10406:10413   */\n      0x00\n        /* \"#utility.yul\":10429:10448   */\n      tag_233\n        /* \"#utility.yul\":10446:10447   */\n      dup3\n        /* \"#utility.yul\":10429:10448   */\n      tag_122\n      jump\t// in\n    tag_233:\n        /* \"#utility.yul\":10424:10448   */\n      swap2\n      pop\n        /* \"#utility.yul\":10462:10481   */\n      tag_234\n        /* \"#utility.yul\":10479:10480   */\n      dup4\n        /* \"#utility.yul\":10462:10481   */\n      tag_122\n      jump\t// in\n    tag_234:\n        /* \"#utility.yul\":10457:10481   */\n      swap3\n      pop\n        /* \"#utility.yul\":10516:10517   */\n      dup3\n        /* \"#utility.yul\":10513:10514   */\n      dup3\n        /* \"#utility.yul\":10509:10518   */\n      mul\n        /* \"#utility.yul\":10538:10567   */\n      tag_235\n        /* \"#utility.yul\":10555:10566   */\n      dup2\n        /* \"#utility.yul\":10538:10567   */\n      tag_122\n      jump\t// in\n    tag_235:\n        /* \"#utility.yul\":10527:10567   */\n      swap2\n      pop\n        /* \"#utility.yul\":10625:10691   */\n      0x8000000000000000000000000000000000000000000000000000000000000000\n        /* \"#utility.yul\":10622:10623   */\n      dup5\n        /* \"#utility.yul\":10619:10692   */\n      eq\n        /* \"#utility.yul\":10615:10616   */\n      0x00\n        /* \"#utility.yul\":10612:10613   */\n      dup5\n        /* \"#utility.yul\":10608:10617   */\n      slt\n        /* \"#utility.yul\":10604:10693   */\n      and\n        /* \"#utility.yul\":10601:10716   */\n      iszero\n      tag_236\n      jumpi\n        /* \"#utility.yul\":10696:10714   */\n      tag_237\n      tag_110\n      jump\t// in\n    tag_237:\n        /* \"#utility.yul\":10601:10716   */\n    tag_236:\n        /* \"#utility.yul\":10866:10867   */\n      dup3\n        /* \"#utility.yul\":10857:10864   */\n      dup3\n        /* \"#utility.yul\":10852:10868   */\n      sdiv\n        /* \"#utility.yul\":10849:10850   */\n      dup5\n        /* \"#utility.yul\":10846:10869   */\n      eq\n        /* \"#utility.yul\":10826:10827   */\n      dup4\n        /* \"#utility.yul\":10819:10828   */\n      iszero\n        /* \"#utility.yul\":10799:10883   */\n      or\n        /* \"#utility.yul\":10776:10916   */\n      tag_238\n      jumpi\n        /* \"#utility.yul\":10896:10914   */\n      tag_239\n      tag_110\n      jump\t// in\n    tag_239:\n        /* \"#utility.yul\":10776:10916   */\n    tag_238:\n        /* \"#utility.yul\":10414:10923   */\n      pop\n        /* \"#utility.yul\":10367:10923   */\n      swap3\n      swap2\n      pop\n      pop\n      jump\t// out\n\n    auxdata: 0xa2646970667358221220269c68533deb80df94c2864af1ed96a4db2f336a519d7be916a5cbd444b093c864736f6c63430008130033\n}\n",
				"bytecode": {
					"linkReferences": {},
					"object": "608060405234801561001057600080fd5b5033600260006101000a81548173ffffffffffffffffffffffffffffffffffffffff021916908373ffffffffffffffffffffffffffffffffffffffff160217905550610cfa806100616000396000f3fe6080604052600436106100555760003560e01c80633ccfd60b1461005a5780633e47d6f3146100715780636b69a592146100ae5780638da5cb5b146100d9578063b60d428814610104578063dc0d3dff1461010e575b600080fd5b34801561006657600080fd5b5061006f61014b565b005b34801561007d57600080fd5b506100986004803603810190610093919061071a565b610396565b6040516100a59190610760565b60405180910390f35b3480156100ba57600080fd5b506100c36103ae565b6040516100d09190610760565b60405180910390f35b3480156100e557600080fd5b506100ee6103ba565b6040516100fb919061078a565b60405180910390f35b61010c6103e0565b005b34801561011a57600080fd5b50610135600480360381019061013091906107d1565b6104ee565b604051610142919061078a565b60405180910390f35b600260009054906101000a900473ffffffffffffffffffffffffffffffffffffffff1673ffffffffffffffffffffffffffffffffffffffff163373ffffffffffffffffffffffffffffffffffffffff16146101db576040517f08c379a00000000000000000000000000000000000000000000000000000000081526004016101d29061085b565b60405180910390fd5b60005b600080549050811015610286576000808281548110610200576101ff61087b565b5b9060005260206000200160009054906101000a900473ffffffffffffffffffffffffffffffffffffffff1690506000600160008373ffffffffffffffffffffffffffffffffffffffff1673ffffffffffffffffffffffffffffffffffffffff1681526020019081526020016000208190555050808061027e906108d9565b9150506101de565b50600067ffffffffffffffff8111156102a2576102a1610921565b5b6040519080825280602002602001820160405280156102d05781602001602082028036833780820191505090505b50600090805190602001906102e6929190610610565b5060003373ffffffffffffffffffffffffffffffffffffffff164760405161030d90610981565b60006040518083038185875af1925050503d806000811461034a576040519150601f19603f3d011682016040523d82523d6000602084013e61034f565b606091505b5050905080610393576040517f08c379a000000000000000000000000000000000000000000000000000000000815260040161038a906109e2565b60405180910390fd5b50565b60016020528060005260406000206000915090505481565b674563918244f4000081565b600260009054906101000a900473ffffffffffffffffffffffffffffffffffffffff1681565b674563918244f400006103f23461052d565b1015610433576040517f08c379a000000000000000000000000000000000000000000000000000000000815260040161042a90610a4e565b60405180910390fd5b6000339080600181540180825580915050600190039060005260206000200160009091909190916101000a81548173ffffffffffffffffffffffffffffffffffffffff021916908373ffffffffffffffffffffffffffffffffffffffff16021790555034600160003373ffffffffffffffffffffffffffffffffffffffff1673ffffffffffffffffffffffffffffffffffffffff16815260200190815260200160002060008282546104e59190610a6e565b92505081905550565b600081815481106104fe57600080fd5b906000526020600020016000915054906101000a900473ffffffffffffffffffffffffffffffffffffffff1681565b600080610538610567565b90506000670de0b6b3a764000084836105519190610aa2565b61055b9190610b13565b90508092505050919050565b60008073694aa1769357215de4fac081bf1f309adc325306905060008173ffffffffffffffffffffffffffffffffffffffff1663feaf968c6040518163ffffffff1660e01b815260040160a060405180830381865afa1580156105ce573d6000803e3d6000fd5b505050506040513d601f19601f820116820180604052508101906105f29190610bd1565b5050509150506402540be400816106099190610c4c565b9250505090565b828054828255906000526020600020908101928215610689579160200282015b828111156106885782518260006101000a81548173ffffffffffffffffffffffffffffffffffffffff021916908373ffffffffffffffffffffffffffffffffffffffff16021790555091602001919060010190610630565b5b509050610696919061069a565b5090565b5b808211156106b357600081600090555060010161069b565b5090565b600080fd5b600073ffffffffffffffffffffffffffffffffffffffff82169050919050565b60006106e7826106bc565b9050919050565b6106f7816106dc565b811461070257600080fd5b50565b600081359050610714816106ee565b92915050565b6000602082840312156107305761072f6106b7565b5b600061073e84828501610705565b91505092915050565b6000819050919050565b61075a81610747565b82525050565b60006020820190506107756000830184610751565b92915050565b610784816106dc565b82525050565b600060208201905061079f600083018461077b565b92915050565b6107ae81610747565b81146107b957600080fd5b50565b6000813590506107cb816107a5565b92915050565b6000602082840312156107e7576107e66106b7565b5b60006107f5848285016107bc565b91505092915050565b600082825260208201905092915050565b7f4d757374206265206f776e657221000000000000000000000000000000000000600082015250565b6000610845600e836107fe565b91506108508261080f565b602082019050919050565b6000602082019050818103600083015261087481610838565b9050919050565b7f4e487b7100000000000000000000000000000000000000000000000000000000600052603260045260246000fd5b7f4e487b7100000000000000000000000000000000000000000000000000000000600052601160045260246000fd5b60006108e482610747565b91507fffffffffffffffffffffffffffffffffffffffffffffffffffffffffffffffff8203610916576109156108aa565b5b600182019050919050565b7f4e487b7100000000000000000000000000000000000000000000000000000000600052604160045260246000fd5b600081905092915050565b50565b600061096b600083610950565b91506109768261095b565b600082019050919050565b600061098c8261095e565b9150819050919050565b7f43616c6c206661696c6564000000000000000000000000000000000000000000600082015250565b60006109cc600b836107fe565b91506109d782610996565b602082019050919050565b600060208201905081810360008301526109fb816109bf565b9050919050565b7f6469646e27742073656e6420656e6f7567687420455448000000000000000000600082015250565b6000610a386017836107fe565b9150610a4382610a02565b602082019050919050565b60006020820190508181036000830152610a6781610a2b565b9050919050565b6000610a7982610747565b9150610a8483610747565b9250828201905080821115610a9c57610a9b6108aa565b5b92915050565b6000610aad82610747565b9150610ab883610747565b9250828202610ac681610747565b91508282048414831517610add57610adc6108aa565b5b5092915050565b7f4e487b7100000000000000000000000000000000000000000000000000000000600052601260045260246000fd5b6000610b1e82610747565b9150610b2983610747565b925082610b3957610b38610ae4565b5b828204905092915050565b600069ffffffffffffffffffff82169050919050565b610b6381610b44565b8114610b6e57600080fd5b50565b600081519050610b8081610b5a565b92915050565b6000819050919050565b610b9981610b86565b8114610ba457600080fd5b50565b600081519050610bb681610b90565b92915050565b600081519050610bcb816107a5565b92915050565b600080600080600060a08688031215610bed57610bec6106b7565b5b6000610bfb88828901610b71565b9550506020610c0c88828901610ba7565b9450506040610c1d88828901610bbc565b9350506060610c2e88828901610bbc565b9250506080610c3f88828901610b71565b9150509295509295909350565b6000610c5782610b86565b9150610c6283610b86565b9250828202610c7081610b86565b91507f80000000000000000000000000000000000000000000000000000000000000008414600084121615610ca857610ca76108aa565b5b8282058414831517610cbd57610cbc6108aa565b5b509291505056fea2646970667358221220269c68533deb80df94c2864af1ed96a4db2f336a519d7be916a5cbd444b093c864736f6c63430008130033",
					"opcodes": "PUSH1 0x80 PUSH1 0x40 MSTORE CALLVALUE DUP1 ISZERO PUSH2 0x10 JUMPI PUSH1 0x0 DUP1 REVERT JUMPDEST POP CALLER PUSH1 0x2 PUSH1 0x0 PUSH2 0x100 EXP DUP2 SLOAD DUP2 PUSH20 0xFFFFFFFFFFFFFFFFFFFFFFFFFFFFFFFFFFFFFFFF MUL NOT AND SWAP1 DUP4 PUSH20 0xFFFFFFFFFFFFFFFFFFFFFFFFFFFFFFFFFFFFFFFF AND MUL OR SWAP1 SSTORE POP PUSH2 0xCFA DUP1 PUSH2 0x61 PUSH1 0x0 CODECOPY PUSH1 0x0 RETURN INVALID PUSH1 0x80 PUSH1 0x40 MSTORE PUSH1 0x4 CALLDATASIZE LT PUSH2 0x55 JUMPI PUSH1 0x0 CALLDATALOAD PUSH1 0xE0 SHR DUP1 PUSH4 0x3CCFD60B EQ PUSH2 0x5A JUMPI DUP1 PUSH4 0x3E47D6F3 EQ PUSH2 0x71 JUMPI DUP1 PUSH4 0x6B69A592 EQ PUSH2 0xAE JUMPI DUP1 PUSH4 0x8DA5CB5B EQ PUSH2 0xD9 JUMPI DUP1 PUSH4 0xB60D4288 EQ PUSH2 0x104 JUMPI DUP1 PUSH4 0xDC0D3DFF EQ PUSH2 0x10E JUMPI JUMPDEST PUSH1 0x0 DUP1 REVERT JUMPDEST CALLVALUE DUP1 ISZERO PUSH2 0x66 JUMPI PUSH1 0x0 DUP1 REVERT JUMPDEST POP PUSH2 0x6F PUSH2 0x14B JUMP JUMPDEST STOP JUMPDEST CALLVALUE DUP1 ISZERO PUSH2 0x7D JUMPI PUSH1 0x0 DUP1 REVERT JUMPDEST POP PUSH2 0x98 PUSH1 0x4 DUP1 CALLDATASIZE SUB DUP2 ADD SWAP1 PUSH2 0x93 SWAP2 SWAP1 PUSH2 0x71A JUMP JUMPDEST PUSH2 0x396 JUMP JUMPDEST PUSH1 0x40 MLOAD PUSH2 0xA5 SWAP2 SWAP1 PUSH2 0x760 JUMP JUMPDEST PUSH1 0x40 MLOAD DUP1 SWAP2 SUB SWAP1 RETURN JUMPDEST CALLVALUE DUP1 ISZERO PUSH2 0xBA JUMPI PUSH1 0x0 DUP1 REVERT JUMPDEST POP PUSH2 0xC3 PUSH2 0x3AE JUMP JUMPDEST PUSH1 0x40 MLOAD PUSH2 0xD0 SWAP2 SWAP1 PUSH2 0x760 JUMP JUMPDEST PUSH1 0x40 MLOAD DUP1 SWAP2 SUB SWAP1 RETURN JUMPDEST CALLVALUE DUP1 ISZERO PUSH2 0xE5 JUMPI PUSH1 0x0 DUP1 REVERT JUMPDEST POP PUSH2 0xEE PUSH2 0x3BA JUMP JUMPDEST PUSH1 0x40 MLOAD PUSH2 0xFB SWAP2 SWAP1 PUSH2 0x78A JUMP JUMPDEST PUSH1 0x40 MLOAD DUP1 SWAP2 SUB SWAP1 RETURN JUMPDEST PUSH2 0x10C PUSH2 0x3E0 JUMP JUMPDEST STOP JUMPDEST CALLVALUE DUP1 ISZERO PUSH2 0x11A JUMPI PUSH1 0x0 DUP1 REVERT JUMPDEST POP PUSH2 0x135 PUSH1 0x4 DUP1 CALLDATASIZE SUB DUP2 ADD SWAP1 PUSH2 0x130 SWAP2 SWAP1 PUSH2 0x7D1 JUMP JUMPDEST PUSH2 0x4EE JUMP JUMPDEST PUSH1 0x40 MLOAD PUSH2 0x142 SWAP2 SWAP1 PUSH2 0x78A JUMP JUMPDEST PUSH1 0x40 MLOAD DUP1 SWAP2 SUB SWAP1 RETURN JUMPDEST PUSH1 0x2 PUSH1 0x0 SWAP1 SLOAD SWAP1 PUSH2 0x100 EXP SWAP1 DIV PUSH20 0xFFFFFFFFFFFFFFFFFFFFFFFFFFFFFFFFFFFFFFFF AND PUSH20 0xFFFFFFFFFFFFFFFFFFFFFFFFFFFFFFFFFFFFFFFF AND CALLER PUSH20 0xFFFFFFFFFFFFFFFFFFFFFFFFFFFFFFFFFFFFFFFF AND EQ PUSH2 0x1DB JUMPI PUSH1 0x40 MLOAD PUSH32 0x8C379A000000000000000000000000000000000000000000000000000000000 DUP2 MSTORE PUSH1 0x4 ADD PUSH2 0x1D2 SWAP1 PUSH2 0x85B JUMP JUMPDEST PUSH1 0x40 MLOAD DUP1 SWAP2 SUB SWAP1 REVERT JUMPDEST PUSH1 0x0 JUMPDEST PUSH1 0x0 DUP1 SLOAD SWAP1 POP DUP2 LT ISZERO PUSH2 0x286 JUMPI PUSH1 0x0 DUP1 DUP3 DUP2 SLOAD DUP2 LT PUSH2 0x200 JUMPI PUSH2 0x1FF PUSH2 0x87B JUMP JUMPDEST JUMPDEST SWAP1 PUSH1 0x0 MSTORE PUSH1 0x20 PUSH1 0x0 KECCAK256 ADD PUSH1 0x0 SWAP1 SLOAD SWAP1 PUSH2 0x100 EXP SWAP1 DIV PUSH20 0xFFFFFFFFFFFFFFFFFFFFFFFFFFFFFFFFFFFFFFFF AND SWAP1 POP PUSH1 0x0 PUSH1 0x1 PUSH1 0x0 DUP4 PUSH20 0xFFFFFFFFFFFFFFFFFFFFFFFFFFFFFFFFFFFFFFFF AND PUSH20 0xFFFFFFFFFFFFFFFFFFFFFFFFFFFFFFFFFFFFFFFF AND DUP2 MSTORE PUSH1 0x20 ADD SWAP1 DUP2 MSTORE PUSH1 0x20 ADD PUSH1 0x0 KECCAK256 DUP2 SWAP1 SSTORE POP POP DUP1 DUP1 PUSH2 0x27E SWAP1 PUSH2 0x8D9 JUMP JUMPDEST SWAP2 POP POP PUSH2 0x1DE JUMP JUMPDEST POP PUSH1 0x0 PUSH8 0xFFFFFFFFFFFFFFFF DUP2 GT ISZERO PUSH2 0x2A2 JUMPI PUSH2 0x2A1 PUSH2 0x921 JUMP JUMPDEST JUMPDEST PUSH1 0x40 MLOAD SWAP1 DUP1 DUP3 MSTORE DUP1 PUSH1 0x20 MUL PUSH1 0x20 ADD DUP3 ADD PUSH1 0x40 MSTORE DUP1 ISZERO PUSH2 0x2D0 JUMPI DUP2 PUSH1 0x20 ADD PUSH1 0x20 DUP3 MUL DUP1 CALLDATASIZE DUP4 CALLDATACOPY DUP1 DUP3 ADD SWAP2 POP POP SWAP1 POP JUMPDEST POP PUSH1 0x0 SWAP1 DUP1 MLOAD SWAP1 PUSH1 0x20 ADD SWAP1 PUSH2 0x2E6 SWAP3 SWAP2 SWAP1 PUSH2 0x610 JUMP JUMPDEST POP PUSH1 0x0 CALLER PUSH20 0xFFFFFFFFFFFFFFFFFFFFFFFFFFFFFFFFFFFFFFFF AND SELFBALANCE PUSH1 0x40 MLOAD PUSH2 0x30D SWAP1 PUSH2 0x981 JUMP JUMPDEST PUSH1 0x0 PUSH1 0x40 MLOAD DUP1 DUP4 SUB DUP2 DUP6 DUP8 GAS CALL SWAP3 POP POP POP RETURNDATASIZE DUP1 PUSH1 0x0 DUP2 EQ PUSH2 0x34A JUMPI PUSH1 0x40 MLOAD SWAP2 POP PUSH1 0x1F NOT PUSH1 0x3F RETURNDATASIZE ADD AND DUP3 ADD PUSH1 0x40 MSTORE RETURNDATASIZE DUP3 MSTORE RETURNDATASIZE PUSH1 0x0 PUSH1 0x20 DUP5 ADD RETURNDATACOPY PUSH2 0x34F JUMP JUMPDEST PUSH1 0x60 SWAP2 POP JUMPDEST POP POP SWAP1 POP DUP1 PUSH2 0x393 JUMPI PUSH1 0x40 MLOAD PUSH32 0x8C379A000000000000000000000000000000000000000000000000000000000 DUP2 MSTORE PUSH1 0x4 ADD PUSH2 0x38A SWAP1 PUSH2 0x9E2 JUMP JUMPDEST PUSH1 0x40 MLOAD DUP1 SWAP2 SUB SWAP1 REVERT JUMPDEST POP JUMP JUMPDEST PUSH1 0x1 PUSH1 0x20 MSTORE DUP1 PUSH1 0x0 MSTORE PUSH1 0x40 PUSH1 0x0 KECCAK256 PUSH1 0x0 SWAP2 POP SWAP1 POP SLOAD DUP2 JUMP JUMPDEST PUSH8 0x4563918244F40000 DUP2 JUMP JUMPDEST PUSH1 0x2 PUSH1 0x0 SWAP1 SLOAD SWAP1 PUSH2 0x100 EXP SWAP1 DIV PUSH20 0xFFFFFFFFFFFFFFFFFFFFFFFFFFFFFFFFFFFFFFFF AND DUP2 JUMP JUMPDEST PUSH8 0x4563918244F40000 PUSH2 0x3F2 CALLVALUE PUSH2 0x52D JUMP JUMPDEST LT ISZERO PUSH2 0x433 JUMPI PUSH1 0x40 MLOAD PUSH32 0x8C379A000000000000000000000000000000000000000000000000000000000 DUP2 MSTORE PUSH1 0x4 ADD PUSH2 0x42A SWAP1 PUSH2 0xA4E JUMP JUMPDEST PUSH1 0x40 MLOAD DUP1 SWAP2 SUB SWAP1 REVERT JUMPDEST PUSH1 0x0 CALLER SWAP1 DUP1 PUSH1 0x1 DUP2 SLOAD ADD DUP1 DUP3 SSTORE DUP1 SWAP2 POP POP PUSH1 0x1 SWAP1 SUB SWAP1 PUSH1 0x0 MSTORE PUSH1 0x20 PUSH1 0x0 KECCAK256 ADD PUSH1 0x0 SWAP1 SWAP2 SWAP1 SWAP2 SWAP1 SWAP2 PUSH2 0x100 EXP DUP2 SLOAD DUP2 PUSH20 0xFFFFFFFFFFFFFFFFFFFFFFFFFFFFFFFFFFFFFFFF MUL NOT AND SWAP1 DUP4 PUSH20 0xFFFFFFFFFFFFFFFFFFFFFFFFFFFFFFFFFFFFFFFF AND MUL OR SWAP1 SSTORE POP CALLVALUE PUSH1 0x1 PUSH1 0x0 CALLER PUSH20 0xFFFFFFFFFFFFFFFFFFFFFFFFFFFFFFFFFFFFFFFF AND PUSH20 0xFFFFFFFFFFFFFFFFFFFFFFFFFFFFFFFFFFFFFFFF AND DUP2 MSTORE PUSH1 0x20 ADD SWAP1 DUP2 MSTORE PUSH1 0x20 ADD PUSH1 0x0 KECCAK256 PUSH1 0x0 DUP3 DUP3 SLOAD PUSH2 0x4E5 SWAP2 SWAP1 PUSH2 0xA6E JUMP JUMPDEST SWAP3 POP POP DUP2 SWAP1 SSTORE POP JUMP JUMPDEST PUSH1 0x0 DUP2 DUP2 SLOAD DUP2 LT PUSH2 0x4FE JUMPI PUSH1 0x0 DUP1 REVERT JUMPDEST SWAP1 PUSH1 0x0 MSTORE PUSH1 0x20 PUSH1 0x0 KECCAK256 ADD PUSH1 0x0 SWAP2 POP SLOAD SWAP1 PUSH2 0x100 EXP SWAP1 DIV PUSH20 0xFFFFFFFFFFFFFFFFFFFFFFFFFFFFFFFFFFFFFFFF AND DUP2 JUMP JUMPDEST PUSH1 0x0 DUP1 PUSH2 0x538 PUSH2 0x567 JUMP JUMPDEST SWAP1 POP PUSH1 0x0 PUSH8 0xDE0B6B3A7640000 DUP5 DUP4 PUSH2 0x551 SWAP2 SWAP1 PUSH2 0xAA2 JUMP JUMPDEST PUSH2 0x55B SWAP2 SWAP1 PUSH2 0xB13 JUMP JUMPDEST SWAP1 POP DUP1 SWAP3 POP POP POP SWAP2 SWAP1 POP JUMP JUMPDEST PUSH1 0x0 DUP1 PUSH20 0x694AA1769357215DE4FAC081BF1F309ADC325306 SWAP1 POP PUSH1 0x0 DUP2 PUSH20 0xFFFFFFFFFFFFFFFFFFFFFFFFFFFFFFFFFFFFFFFF AND PUSH4 0xFEAF968C PUSH1 0x40 MLOAD DUP2 PUSH4 0xFFFFFFFF AND PUSH1 0xE0 SHL DUP2 MSTORE PUSH1 0x4 ADD PUSH1 0xA0 PUSH1 0x40 MLOAD DUP1 DUP4 SUB DUP2 DUP7 GAS STATICCALL ISZERO DUP1 ISZERO PUSH2 0x5CE JUMPI RETURNDATASIZE PUSH1 0x0 DUP1 RETURNDATACOPY RETURNDATASIZE PUSH1 0x0 REVERT JUMPDEST POP POP POP POP PUSH1 0x40 MLOAD RETURNDATASIZE PUSH1 0x1F NOT PUSH1 0x1F DUP3 ADD AND DUP3 ADD DUP1 PUSH1 0x40 MSTORE POP DUP2 ADD SWAP1 PUSH2 0x5F2 SWAP2 SWAP1 PUSH2 0xBD1 JUMP JUMPDEST POP POP POP SWAP2 POP POP PUSH5 0x2540BE400 DUP2 PUSH2 0x609 SWAP2 SWAP1 PUSH2 0xC4C JUMP JUMPDEST SWAP3 POP POP POP SWAP1 JUMP JUMPDEST DUP3 DUP1 SLOAD DUP3 DUP3 SSTORE SWAP1 PUSH1 0x0 MSTORE PUSH1 0x20 PUSH1 0x0 KECCAK256 SWAP1 DUP2 ADD SWAP3 DUP3 ISZERO PUSH2 0x689 JUMPI SWAP2 PUSH1 0x20 MUL DUP3 ADD JUMPDEST DUP3 DUP2 GT ISZERO PUSH2 0x688 JUMPI DUP3 MLOAD DUP3 PUSH1 0x0 PUSH2 0x100 EXP DUP2 SLOAD DUP2 PUSH20 0xFFFFFFFFFFFFFFFFFFFFFFFFFFFFFFFFFFFFFFFF MUL NOT AND SWAP1 DUP4 PUSH20 0xFFFFFFFFFFFFFFFFFFFFFFFFFFFFFFFFFFFFFFFF AND MUL OR SWAP1 SSTORE POP SWAP2 PUSH1 0x20 ADD SWAP2 SWAP1 PUSH1 0x1 ADD SWAP1 PUSH2 0x630 JUMP JUMPDEST JUMPDEST POP SWAP1 POP PUSH2 0x696 SWAP2 SWAP1 PUSH2 0x69A JUMP JUMPDEST POP SWAP1 JUMP JUMPDEST JUMPDEST DUP1 DUP3 GT ISZERO PUSH2 0x6B3 JUMPI PUSH1 0x0 DUP2 PUSH1 0x0 SWAP1 SSTORE POP PUSH1 0x1 ADD PUSH2 0x69B JUMP JUMPDEST POP SWAP1 JUMP JUMPDEST PUSH1 0x0 DUP1 REVERT JUMPDEST PUSH1 0x0 PUSH20 0xFFFFFFFFFFFFFFFFFFFFFFFFFFFFFFFFFFFFFFFF DUP3 AND SWAP1 POP SWAP2 SWAP1 POP JUMP JUMPDEST PUSH1 0x0 PUSH2 0x6E7 DUP3 PUSH2 0x6BC JUMP JUMPDEST SWAP1 POP SWAP2 SWAP1 POP JUMP JUMPDEST PUSH2 0x6F7 DUP2 PUSH2 0x6DC JUMP JUMPDEST DUP2 EQ PUSH2 0x702 JUMPI PUSH1 0x0 DUP1 REVERT JUMPDEST POP JUMP JUMPDEST PUSH1 0x0 DUP2 CALLDATALOAD SWAP1 POP PUSH2 0x714 DUP2 PUSH2 0x6EE JUMP JUMPDEST SWAP3 SWAP2 POP POP JUMP JUMPDEST PUSH1 0x0 PUSH1 0x20 DUP3 DUP5 SUB SLT ISZERO PUSH2 0x730 JUMPI PUSH2 0x72F PUSH2 0x6B7 JUMP JUMPDEST JUMPDEST PUSH1 0x0 PUSH2 0x73E DUP5 DUP3 DUP6 ADD PUSH2 0x705 JUMP JUMPDEST SWAP2 POP POP SWAP3 SWAP2 POP POP JUMP JUMPDEST PUSH1 0x0 DUP2 SWAP1 POP SWAP2 SWAP1 POP JUMP JUMPDEST PUSH2 0x75A DUP2 PUSH2 0x747 JUMP JUMPDEST DUP3 MSTORE POP POP JUMP JUMPDEST PUSH1 0x0 PUSH1 0x20 DUP3 ADD SWAP1 POP PUSH2 0x775 PUSH1 0x0 DUP4 ADD DUP5 PUSH2 0x751 JUMP JUMPDEST SWAP3 SWAP2 POP POP JUMP JUMPDEST PUSH2 0x784 DUP2 PUSH2 0x6DC JUMP JUMPDEST DUP3 MSTORE POP POP JUMP JUMPDEST PUSH1 0x0 PUSH1 0x20 DUP3 ADD SWAP1 POP PUSH2 0x79F PUSH1 0x0 DUP4 ADD DUP5 PUSH2 0x77B JUMP JUMPDEST SWAP3 SWAP2 POP POP JUMP JUMPDEST PUSH2 0x7AE DUP2 PUSH2 0x747 JUMP JUMPDEST DUP2 EQ PUSH2 0x7B9 JUMPI PUSH1 0x0 DUP1 REVERT JUMPDEST POP JUMP JUMPDEST PUSH1 0x0 DUP2 CALLDATALOAD SWAP1 POP PUSH2 0x7CB DUP2 PUSH2 0x7A5 JUMP JUMPDEST SWAP3 SWAP2 POP POP JUMP JUMPDEST PUSH1 0x0 PUSH1 0x20 DUP3 DUP5 SUB SLT ISZERO PUSH2 0x7E7 JUMPI PUSH2 0x7E6 PUSH2 0x6B7 JUMP JUMPDEST JUMPDEST PUSH1 0x0 PUSH2 0x7F5 DUP5 DUP3 DUP6 ADD PUSH2 0x7BC JUMP JUMPDEST SWAP2 POP POP SWAP3 SWAP2 POP POP JUMP JUMPDEST PUSH1 0x0 DUP3 DUP3 MSTORE PUSH1 0x20 DUP3 ADD SWAP1 POP SWAP3 SWAP2 POP POP JUMP JUMPDEST PUSH32 0x4D757374206265206F776E657221000000000000000000000000000000000000 PUSH1 0x0 DUP3 ADD MSTORE POP JUMP JUMPDEST PUSH1 0x0 PUSH2 0x845 PUSH1 0xE DUP4 PUSH2 0x7FE JUMP JUMPDEST SWAP2 POP PUSH2 0x850 DUP3 PUSH2 0x80F JUMP JUMPDEST PUSH1 0x20 DUP3 ADD SWAP1 POP SWAP2 SWAP1 POP JUMP JUMPDEST PUSH1 0x0 PUSH1 0x20 DUP3 ADD SWAP1 POP DUP2 DUP2 SUB PUSH1 0x0 DUP4 ADD MSTORE PUSH2 0x874 DUP2 PUSH2 0x838 JUMP JUMPDEST SWAP1 POP SWAP2 SWAP1 POP JUMP JUMPDEST PUSH32 0x4E487B7100000000000000000000000000000000000000000000000000000000 PUSH1 0x0 MSTORE PUSH1 0x32 PUSH1 0x4 MSTORE PUSH1 0x24 PUSH1 0x0 REVERT JUMPDEST PUSH32 0x4E487B7100000000000000000000000000000000000000000000000000000000 PUSH1 0x0 MSTORE PUSH1 0x11 PUSH1 0x4 MSTORE PUSH1 0x24 PUSH1 0x0 REVERT JUMPDEST PUSH1 0x0 PUSH2 0x8E4 DUP3 PUSH2 0x747 JUMP JUMPDEST SWAP2 POP PUSH32 0xFFFFFFFFFFFFFFFFFFFFFFFFFFFFFFFFFFFFFFFFFFFFFFFFFFFFFFFFFFFFFFFF DUP3 SUB PUSH2 0x916 JUMPI PUSH2 0x915 PUSH2 0x8AA JUMP JUMPDEST JUMPDEST PUSH1 0x1 DUP3 ADD SWAP1 POP SWAP2 SWAP1 POP JUMP JUMPDEST PUSH32 0x4E487B7100000000000000000000000000000000000000000000000000000000 PUSH1 0x0 MSTORE PUSH1 0x41 PUSH1 0x4 MSTORE PUSH1 0x24 PUSH1 0x0 REVERT JUMPDEST PUSH1 0x0 DUP2 SWAP1 POP SWAP3 SWAP2 POP POP JUMP JUMPDEST POP JUMP JUMPDEST PUSH1 0x0 PUSH2 0x96B PUSH1 0x0 DUP4 PUSH2 0x950 JUMP JUMPDEST SWAP2 POP PUSH2 0x976 DUP3 PUSH2 0x95B JUMP JUMPDEST PUSH1 0x0 DUP3 ADD SWAP1 POP SWAP2 SWAP1 POP JUMP JUMPDEST PUSH1 0x0 PUSH2 0x98C DUP3 PUSH2 0x95E JUMP JUMPDEST SWAP2 POP DUP2 SWAP1 POP SWAP2 SWAP1 POP JUMP JUMPDEST PUSH32 0x43616C6C206661696C6564000000000000000000000000000000000000000000 PUSH1 0x0 DUP3 ADD MSTORE POP JUMP JUMPDEST PUSH1 0x0 PUSH2 0x9CC PUSH1 0xB DUP4 PUSH2 0x7FE JUMP JUMPDEST SWAP2 POP PUSH2 0x9D7 DUP3 PUSH2 0x996 JUMP JUMPDEST PUSH1 0x20 DUP3 ADD SWAP1 POP SWAP2 SWAP1 POP JUMP JUMPDEST PUSH1 0x0 PUSH1 0x20 DUP3 ADD SWAP1 POP DUP2 DUP2 SUB PUSH1 0x0 DUP4 ADD MSTORE PUSH2 0x9FB DUP2 PUSH2 0x9BF JUMP JUMPDEST SWAP1 POP SWAP2 SWAP1 POP JUMP JUMPDEST PUSH32 0x6469646E27742073656E6420656E6F7567687420455448000000000000000000 PUSH1 0x0 DUP3 ADD MSTORE POP JUMP JUMPDEST PUSH1 0x0 PUSH2 0xA38 PUSH1 0x17 DUP4 PUSH2 0x7FE JUMP JUMPDEST SWAP2 POP PUSH2 0xA43 DUP3 PUSH2 0xA02 JUMP JUMPDEST PUSH1 0x20 DUP3 ADD SWAP1 POP SWAP2 SWAP1 POP JUMP JUMPDEST PUSH1 0x0 PUSH1 0x20 DUP3 ADD SWAP1 POP DUP2 DUP2 SUB PUSH1 0x0 DUP4 ADD MSTORE PUSH2 0xA67 DUP2 PUSH2 0xA2B JUMP JUMPDEST SWAP1 POP SWAP2 SWAP1 POP JUMP JUMPDEST PUSH1 0x0 PUSH2 0xA79 DUP3 PUSH2 0x747 JUMP JUMPDEST SWAP2 POP PUSH2 0xA84 DUP4 PUSH2 0x747 JUMP JUMPDEST SWAP3 POP DUP3 DUP3 ADD SWAP1 POP DUP1 DUP3 GT ISZERO PUSH2 0xA9C JUMPI PUSH2 0xA9B PUSH2 0x8AA JUMP JUMPDEST JUMPDEST SWAP3 SWAP2 POP POP JUMP JUMPDEST PUSH1 0x0 PUSH2 0xAAD DUP3 PUSH2 0x747 JUMP JUMPDEST SWAP2 POP PUSH2 0xAB8 DUP4 PUSH2 0x747 JUMP JUMPDEST SWAP3 POP DUP3 DUP3 MUL PUSH2 0xAC6 DUP2 PUSH2 0x747 JUMP JUMPDEST SWAP2 POP DUP3 DUP3 DIV DUP5 EQ DUP4 ISZERO OR PUSH2 0xADD JUMPI PUSH2 0xADC PUSH2 0x8AA JUMP JUMPDEST JUMPDEST POP SWAP3 SWAP2 POP POP JUMP JUMPDEST PUSH32 0x4E487B7100000000000000000000000000000000000000000000000000000000 PUSH1 0x0 MSTORE PUSH1 0x12 PUSH1 0x4 MSTORE PUSH1 0x24 PUSH1 0x0 REVERT JUMPDEST PUSH1 0x0 PUSH2 0xB1E DUP3 PUSH2 0x747 JUMP JUMPDEST SWAP2 POP PUSH2 0xB29 DUP4 PUSH2 0x747 JUMP JUMPDEST SWAP3 POP DUP3 PUSH2 0xB39 JUMPI PUSH2 0xB38 PUSH2 0xAE4 JUMP JUMPDEST JUMPDEST DUP3 DUP3 DIV SWAP1 POP SWAP3 SWAP2 POP POP JUMP JUMPDEST PUSH1 0x0 PUSH10 0xFFFFFFFFFFFFFFFFFFFF DUP3 AND SWAP1 POP SWAP2 SWAP1 POP JUMP JUMPDEST PUSH2 0xB63 DUP2 PUSH2 0xB44 JUMP JUMPDEST DUP2 EQ PUSH2 0xB6E JUMPI PUSH1 0x0 DUP1 REVERT JUMPDEST POP JUMP JUMPDEST PUSH1 0x0 DUP2 MLOAD SWAP1 POP PUSH2 0xB80 DUP2 PUSH2 0xB5A JUMP JUMPDEST SWAP3 SWAP2 POP POP JUMP JUMPDEST PUSH1 0x0 DUP2 SWAP1 POP SWAP2 SWAP1 POP JUMP JUMPDEST PUSH2 0xB99 DUP2 PUSH2 0xB86 JUMP JUMPDEST DUP2 EQ PUSH2 0xBA4 JUMPI PUSH1 0x0 DUP1 REVERT JUMPDEST POP JUMP JUMPDEST PUSH1 0x0 DUP2 MLOAD SWAP1 POP PUSH2 0xBB6 DUP2 PUSH2 0xB90 JUMP JUMPDEST SWAP3 SWAP2 POP POP JUMP JUMPDEST PUSH1 0x0 DUP2 MLOAD SWAP1 POP PUSH2 0xBCB DUP2 PUSH2 0x7A5 JUMP JUMPDEST SWAP3 SWAP2 POP POP JUMP JUMPDEST PUSH1 0x0 DUP1 PUSH1 0x0 DUP1 PUSH1 0x0 PUSH1 0xA0 DUP7 DUP9 SUB SLT ISZERO PUSH2 0xBED JUMPI PUSH2 0xBEC PUSH2 0x6B7 JUMP JUMPDEST JUMPDEST PUSH1 0x0 PUSH2 0xBFB DUP9 DUP3 DUP10 ADD PUSH2 0xB71 JUMP JUMPDEST SWAP6 POP POP PUSH1 0x20 PUSH2 0xC0C DUP9 DUP3 DUP10 ADD PUSH2 0xBA7 JUMP JUMPDEST SWAP5 POP POP PUSH1 0x40 PUSH2 0xC1D DUP9 DUP3 DUP10 ADD PUSH2 0xBBC JUMP JUMPDEST SWAP4 POP POP PUSH1 0x60 PUSH2 0xC2E DUP9 DUP3 DUP10 ADD PUSH2 0xBBC JUMP JUMPDEST SWAP3 POP POP PUSH1 0x80 PUSH2 0xC3F DUP9 DUP3 DUP10 ADD PUSH2 0xB71 JUMP JUMPDEST SWAP2 POP POP SWAP3 SWAP6 POP SWAP3 SWAP6 SWAP1 SWAP4 POP JUMP JUMPDEST PUSH1 0x0 PUSH2 0xC57 DUP3 PUSH2 0xB86 JUMP JUMPDEST SWAP2 POP PUSH2 0xC62 DUP4 PUSH2 0xB86 JUMP JUMPDEST SWAP3 POP DUP3 DUP3 MUL PUSH2 0xC70 DUP2 PUSH2 0xB86 JUMP JUMPDEST SWAP2 POP PUSH32 0x8000000000000000000000000000000000000000000000000000000000000000 DUP5 EQ PUSH1 0x0 DUP5 SLT AND ISZERO PUSH2 0xCA8 JUMPI PUSH2 0xCA7 PUSH2 0x8AA JUMP JUMPDEST JUMPDEST DUP3 DUP3 SDIV DUP5 EQ DUP4 ISZERO OR PUSH2 0xCBD JUMPI PUSH2 0xCBC PUSH2 0x8AA JUMP JUMPDEST JUMPDEST POP SWAP3 SWAP2 POP POP JUMP INVALID LOG2 PUSH5 0x6970667358 0x22 SLT KECCAK256 0x26 SWAP13 PUSH9 0x533DEB80DF94C2864A CALL 0xED SWAP7 LOG4 0xDB 0x2F CALLER PUSH11 0x519D7BE916A5CBD444B093 0xC8 PUSH5 0x736F6C6343 STOP ADDMOD SGT STOP CALLER "
				},
				"gasEstimates": {
					"creation": {
						"codeDepositCost": "664400",
						"executionCost": "24962",
						"totalCost": "689362"
					},
					"external": {
						"MINIMUM_USD()": "351",
						"addressToAmountFunded(address)": "2814",
						"fund()": "infinite",
						"funders(uint256)": "5044",
						"owner()": "2558",
						"withdraw()": "infinite"
					}
				},
				"methodIdentifiers": {
					"MINIMUM_USD()": "6b69a592",
					"addressToAmountFunded(address)": "3e47d6f3",
					"fund()": "b60d4288",
					"funders(uint256)": "dc0d3dff",
					"owner()": "8da5cb5b",
					"withdraw()": "3ccfd60b"
				}
			},
			"storageLayout": {
				"storage": [
					{
						"astId": 58,
						"contract": "Contracts/FundMe/FundMe.sol:FundMe",
						"label": "funders",
						"offset": 0,
						"slot": "0",
						"type": "t_array(t_address)dyn_storage"
					},
					{
						"astId": 62,
						"contract": "Contracts/FundMe/FundMe.sol:FundMe",
						"label": "addressToAmountFunded",
						"offset": 0,
						"slot": "1",
						"type": "t_mapping(t_address,t_uint256)"
					},
					{
						"astId": 64,
						"contract": "Contracts/FundMe/FundMe.sol:FundMe",
						"label": "owner",
						"offset": 0,
						"slot": "2",
						"type": "t_address"
					}
				],
				"types": {
					"t_address": {
						"encoding": "inplace",
						"label": "address",
						"numberOfBytes": "20"
					},
					"t_array(t_address)dyn_storage": {
						"base": "t_address",
						"encoding": "dynamic_array",
						"label": "address[]",
						"numberOfBytes": "32"
					},
					"t_mapping(t_address,t_uint256)": {
						"encoding": "mapping",
						"key": "t_address",
						"label": "mapping(address => uint256)",
						"numberOfBytes": "32",
						"value": "t_uint256"
					},
					"t_uint256": {
						"encoding": "inplace",
						"label": "uint256",
						"numberOfBytes": "32"
					}
				}
			},
			"userdoc": {
				"kind": "user",
				"methods": {},
				"version": 1
			}
		}
	}
}